:020000040000FA
:1000000040270020F9020000010300000303000064
:1000100005030000070300000903000000000000C2
:100020000000000000000000000000000B030000C2
:100030000D030000000000000F030000110300008A
:10004000130300001303000075080000F90400000A
:100050001303000013030000450400001303000015
:100060001303000013030000130300001303000038
:100070001303000013030000130300001303000028
:1000800013030000E9040000130300001303000041
:100090001303000013030000130300001303000008
:1000A00013030000130300001303000013030000F8
:1000B0001303000013030000000000000000000014
:1000C00013030000130300001303000013030000D8
:1000D00013030000130300001303000000000000DE
:1000E0000000000000000000000000000000000010
:1000F0000000000000000000000000000000000000
:1001000000000000000000000000000000000000EF
:1001100000000000000000000000000000000000DF
:1001200000000000000000000000000000000000CF
:1001300000000000000000000000000000000000BF
:1001400000000000000000000000000000000000AF
:10015000000000000000000000000000000000009F
:10016000000000000000000000000000000000008F
:10017000000000000000000000000000000000007F
:10018000000000000000000000000000000000006F
:10019000000000000000000000000000000000005F
:1001A000000000000000000000000000000000004F
:1001B000000000000000000000000000000000003F
:1001C000000000000000000000000000000000002F
:1001D000000000000000000000000000000000001F
:1001E000000000000000000000000000000000000F
:1001F00000000000000000000000000000000000FF
:10020000DFF80CD000F0BAF800480047410E0000BB
:100210004027002030B4044654E8000F0D4644E85F
:100220000053002BF8D1156030BC704730B4044641
:1002300054E8000F40EA010544E80053002BF7D1D1
:10024000156030BC704730B4044654E8000F00EA33
:10025000010544E80053002BF7D1156030BC70470E
:1002600030B4044654E8000F80EA010544E8005326
:10027000002BF7D1156030BC704730B4044654E809
:10028000000F00EB010544E80053002BF7D1156087
:1002900030BC704730B4044654E8000FA0EB0105B1
:1002A00044E80053002BF7D1156030BC704770B4A0
:1002B00004464FF0000054E8006F0D68AE4207BFDF
:1002C00044E80023012044E800630E60002B1CBFBB
:1002D0000020F0E770BC704730B4044654E8000FCB
:1002E00088422CBF451A054644E80053002BF5D13F
:1002F000156030BC7047000006488047064800473C
:10030000FEE7FEE7FEE7FEE7FEE7FEE7FEE7FEE7C5
:10031000FEE7FEE74D0500000102000000487047BF
:100320006C2D000040EA01039B0703D009E008C9D7
:10033000121F08C0042AFAD203E011F8013B00F8AA
:10034000013B521EF9D27047D2B201E000F8012BF6
:10035000491EFBD270470022F6E710B513460A4645
:1003600004461946FFF7F0FF204610BD421C10F866
:10037000011B0029FBD1801A70470000064C074D75
:1003800006E0E06840F0010394E807009847103465
:10039000AC42F6D3FFF738FF382E0000582E00008D
:1003A00010B5022140F2B94002F02AF94FF47A71F7
:1003B0004C2002F04DF9052140F2914002F020F965
:1003C0004FF4406140F2AF4002F01AF9002140F2D0
:1003D000924002F015F90C4940F20F4002F038F952
:1003E0000021202002F034F96FF00A01032002F00E
:1003F0002FF90021042002F02BF9BDE81040012163
:100400004FF4966002F0FCB828EA220070B50C495F
:1004100001244FF0A0450A782AB905EB8003032296
:10042000C3F800270C708440C5F80C45642000F028
:1004300011FEC5F80845BDE87040642000F00ABE12
:10044000980000202DE9F8430025DFF894804FF450
:10045000807601242F460095304601F05FF838B1D0
:10046000D8F80403204203D0304601F04DF825436C
:10047000361D64007F1CB6B2082FEDD34FF4BE7456
:10048000204601F04BF848B1204601F03DF845F018
:1004900000456A460121002001F006F815F0FF0F23
:1004A00016D0012600242E420ED008EB8401D1F88C
:1004B0001005D1F81015C0F304200A4AC1F3014118
:1004C00052F8242002B190477600641C082CEAD32D
:1004D000002D02DA684601F033FFBDE8F883000022
:1004E00000600040B800002002490248091F096866
:1004F000006808471C000020F8B51248124E044658
:100500004FF48C7101F085FB00281AD00025C4F847
:100510001851D4F818010090F07F3446FF2806D017
:10052000A17F11B100F0D6FF01E000F0DAFF65779E
:100530002572D4E9002101B004F10800BDE8F040C3
:100540001047F8BD0030004014010020F0B5B74A54
:10055000B7494FF080541368D4F830010978D4F8C3
:100560003421451CC1F3031106D084460127002520
:10057000BCF1060F03D00AE003F0FF0CF6E7B4F875
:100580002463DFF8B0C2C6F30426CCF80060DEB204
:10059000062E06D1032904D1DFF8A0C2A64ECCF85E
:1005A0007460461C04D08446BCF1060F03D00AE0F8
:1005B00003F0FF0CF8E7D4F84462DFF884C2C6F316
:1005C0004236CCF80060DEB2062E08D1032906D1EF
:1005D0009C4ED6F800C02CF0807CC6F800C0461CAB
:1005E00004D08446BCF1060F03D00BE003F0FF0CEF
:1005F000F8E74FF08046C6F80C51C6F81051904EFF
:10060000361F3560DEB2062E08D1032906D1DFF889
:1006100030C203260CF1640CCCF80060DEB2062E6A
:1006200011D103290FD1DFF820C20526CCF80060D4
:10063000854E78363760844E083635600CF1040CF0
:100640003F26CCF80060461C06D084464FEA0206DE
:10065000BCF1060F04D081E003F0FF0C0E46F7E773
:10066000032E7BD0042E79D0784E3668DFF8E0C1B7
:10067000CCF80060754E361D36680CF1040CCCF8D1
:100680000060724E083636680CF1040CCCF800603D
:100690006E4E0C3636680CF1040CCCF800606B4ED4
:1006A000103636680CF1040CCCF80060674E143636
:1006B00036680CF1040CCCF80060644E18363668CD
:1006C000DFF88CC10CF1200CCCF800605F4E1C36BA
:1006D00036680CF1040CCCF800605C4E20363668AD
:1006E0000CF1040CCCF80060584E243636680CF13E
:1006F000040CCCF80060554E283636680CF1040C1A
:10070000CCF80060514E2C3636680CF1040CCCF855
:1007100000604E4E30363668DFF834C10CF1400CC4
:10072000CCF80060494E343636680CF1040CCCF835
:100730000060464E383636680CF1040CCCF8006088
:10074000424E3C3636680CF1040CCCF800603F4E4B
:10075000403636680CF1040CCCF80060461C05D01D
:100760004FEA000CBCF1060F03D008E003F0FF0CC9
:10077000F8E7D4F85842374E04F04F043460441C74
:1007800003D00346062B02D008E0DBB2FAE7324979
:100790000B68DB0702D06FF001030B6006280AD15B
:1007A000032A08D0042A06D0052A04D02B48016861
:1007B00041F48061016023487438016841F470019C
:1007C0000160BFF34F8FBFF36F8F4FF01021D1F84F
:1007D0000002002803DBD1F80402002822DA204AB4
:1007E000176020480368002BFCD01523C1F80032A5
:1007F0000468002CFCD0C1F8043201680029FCD048
:10080000156001680029FCD0BFF34F8F0D48F03808
:100810000168154A01F4E06111430160BFF34F8F95
:1008200000BFFDE7124911480860F0BDE00F00F07D
:10083000E80F00F0403501400DF0ADBA00C00740B0
:100840003C050040FCED00E01056004004040010A0
:1008500020C50040E40E0040000400403C1700406A
:1008600004E5014000E401400400FA050090D003D3
:100870009C00002001480068004700000C00002098
:1008800002E008C8121F08C1002AFAD17047704759
:10089000002001E001C1121F002AFBD170470000B7
:1008A00072B601F0CBF800BF00F01EFF0028FBD1AC
:1008B00011481249401AC408012000EB044010A15D
:1008C00001F02CF811480068C00700D000BE0220DB
:1008D00000EB04400EA101F021F8BFF34F8F0B484D
:1008E000E43801680E4A01F4E06111430160BFF38E
:1008F0004F8F00BFFDE70000A82E0000682E00000B
:10090000466174616C206572726F7200F0ED00E0F8
:1009100053797374656D207265736574000000000F
:100920000400FA050EB500210091CDE901106A46D8
:1009300044F20100FFF7B4FF0EBD00F003B800F071
:1009400009B8000072B602480168491C016070478E
:100950001400002003490868401E086000D162B6F8
:1009600070470000140000202DE9F0410646086899
:100970000C46411C4FF0A0474FF0010506D005FA88
:1009800000F1C7F80815206800F068FD6068411C98
:1009900002D0002100F046FD3168A069C1F82405AD
:1009A000607D227D31681043C1F86C05D4E90012E6
:1009B0003068C0F81425C0F80C15207D012815D129
:1009C000A068411C02D0002100F02CFDE068411C11
:1009D00005D08540C7F80855E06800F03FFDD4E930
:1009E00002123068C0F80825C0F81015BDE8F08183
:1009F0002DE9F041064608680C46411C4FF0A0471F
:100A00004FF0010506D005FA00F1C7F80815206877
:100A100000F02EFD6068411C02D0002100F00BFDAB
:100A20003168A069C1F82405607D217D32680843E2
:100A3000C2F86C05D4E900123068C0F80C15C0F893
:100A40001425207D012815D1A068411C02D0002169
:100A500000F0F1FCE068411C05D08540C7F808555E
:100A6000E06800F005FDD4E902123068C0F80825FE
:100A7000C0F81015BDE8F0812DE9FC410646C0071D
:100A80004FF000050ED0104F00240122385D009574
:100A900000231146019500F06BFC641C042CF4D378
:100AA00000F01CF8B0070DD5074E0024361D0022BB
:100AB000305D032300951146019500F059FC641C3C
:100AC000042CF4D3BDE8FC81462C00000249085CEC
:100AD000012100F00DBD0000462C000010B50024DF
:100AE0002046FFF7F3FF641C042CF9D310BD00006F
:100AF0002DE9F0470546861C91460F464FF0010A46
:100B00000020FFF71AFF1B4C04F21C486068386095
:100B1000D4E90101184F401A3968081A0EE0012182
:100B2000404600F027FA00F039F90146404600F04F
:100B300021FAD4E90101401A3968081A401C86429A
:100B4000EDD8B9F1000F03D0052065F3891002E05C
:100B5000062065F39F5061683A68114004EB8101FB
:100B6000C8606068304460600020FFF7E8FE5046CF
:100B7000BDE8F087200300204400002070B50D463A
:100B800004460A2902D10D21FFF7F8FFA068226868
:100B9000411CA1601554D4E90101814204D32046CF
:100BA000BDE8704000F0EBBA70BD000004488168F9
:100BB0004068814201D10120704700207047000049
:100BC000200300200249084490F9300070470000DB
:100BD000B800002010B50021024800F0D6F980F3DB
:100BE000100010BD3C0700201FB5114B0FCB8DE846
:100BF0000F001C208DF803001E208DF802001F201E
:100C00008DF801001D208DF8000009480023094AD5
:100C10006946103800F02EFA08B1FFF783FE012173
:100C20004FF4906001F0ECFC04B0012010BD000016
:100C3000D82C0000912500002DE9FC5F0E008346B2
:100C4000DDE90C47C6F1000098469246814600D483
:100C50000846012503E000BF90FBFAF06D1C5045EB
:100C6000FADAA84500D9454624B1002E01DB780701
:100C700000D5641EB80702D5B8F1000F0AD0F807F6
:100C800008D13CB1A54205D220215846641EFFF789
:100C900075FFF6E7002E02DA4E462D2102E07807B6
:100CA00003D52B215846FFF769FF07F00300022800
:100CB0000BD1B8F1000F08D13CB1A54205D23021CB
:100CC0005846641EFFF75AFFF6E7CDE90047434652
:100CD00052463146584601F057FFBDE8FC9F0000E0
:100CE00070B50D46044600684FF4887100F0ACFF03
:100CF0004FF49071206800F0A7FF4FF492712068C4
:100D000000F0A2FF4FF4A271206800F09DFF4FF4A5
:100D1000AC71206800F098FF20681249C0F80413F5
:100D20002068690740F30730090E002804DB00F152
:100D3000E02080F8001405E000F00F0000F1E02052
:100D400080F8141D206840F30730002809DB00F00C
:100D50001F02012191404009800000F1E020C0F80D
:100D6000001170BD100342000246002012685307B4
:100D700013D502F00300012802D002280CD105E0AF
:100D8000C2F383100B68801C184404E00223086837
:100D900003EB925210440860012070472DE9FF4197
:100DA0000026244800F0E3F82248001F074600F020
:100DB000DEF8214C2149A06800900D6800E0009801
:100DC0006946284004EB80000C30FFF7CDFF002877
:100DD000F5D101AA009901EA050304EB8303491C3C
:100DE000DB6842F82030401C00910228F2D30198C1
:100DF00000F0030001280BD0022810D10198032134
:100E000001EB90500099BDF80A6001EB900005E0FD
:100E10000198BDF80A60C0F383100844009038467A
:100E200000F0A2F808B10098A06004B03046BDE818
:100E3000F08100003807002020030020440000203B
:100E40000120FFF719FE4FF48041002000F0CAFD99
:100E500008B1FFF767FD00F039FC0420FFF7D6FA70
:100E6000FFF7C2FEFFF79CFA4FF07041002001F03F
:100E7000EFFB0D480D490E4D401AC008032101EB50
:100E800000464FF4FA684FF47A47002001F086FBE1
:100E90000246304607A100F045FD4446691C38462D
:100EA0008847641EFAD1F0E7A82E0000682E0000E3
:100EB000402C0000257800002DE9F047C5881E1D54
:100EC000B6FBF5F78946B6FBF5F1044605FB176C52
:100ED000407916686843DDF820A0F718001F8742A4
:100EE00000D9C61A166001E02468491E0029FBD10A
:100EF000A5EB0C078846B74216D818E004EB0C00A7
:100F0000001D09EB0803BAF1000F3A4602D0014672
:100F1000184600E01946FFF705FA2468F61B4FF063
:100F2000000CB844B54201D9374600E02F46002EE8
:100F3000E4D1BDE8F087000030B5024651B100F0C1
:100F400065FD0021074C08E034F821301568AB42FC
:100F500002D11160002030BD491C8142F4D305202C
:100F600030BD000000000000002100F009B80121A0
:100F700000F010B808B56A46FFF77FF9009808BD81
:100F800008B56A46FFF75FF908BD08B56A46FFF77E
:100F900041F908BD08B56A46FFF748F9009808BD51
:100FA00008B56A46FFF776F9009808BD70B50446A3
:100FB00000252846FFF7C1FC216862680868904256
:100FC0000ED9401E08600178238AE26801FB0325E0
:100FD000227A2168101AC0B20A79824200D20871BE
:100FE0000020FFF7ACFC284670BD70B505460C46E6
:100FF0000020FFF7A2FCE868298A201AB0FBF1F173
:101000002A681068431C13600170BDE8704000201E
:10101000FFF795BC10B530B1017A42680368891AB0
:10102000C9B21A6006E00E2010BD03681A68541C8D
:101030001C601170491EC9B2F7D20068002101710D
:10104000084610BDC20800F007030120895C9840E3
:10105000084070472DE9F041040007D0044E4FF4DA
:101060007A47751C3846A847641EFAD1BDE8F0815E
:10107000C02C00002DE9FF411C460378164D174E89
:1010800045F823200C3545F82340F0CE8DE8F000DC
:101090000C788DF800404C788DF801408C788DF8F4
:1010A0000240CC788DF803400C798DF805404C79DE
:1010B0008DF806408C6802940C7B8DF80C40497BBF
:1010C0008DF80D1002B1064A6946001D00F0F4FDCE
:1010D00004B0BDE8F0810000A0000020502C00000A
:1010E000B12600001FB5001D069C8DE81E000022E1
:1010F000694600F097FE04B010BD0000F0B505464B
:101100000478154889B0164640F82420124A086928
:10111000121DA2F1080742F82400487F385520220A
:101120006846FFF7FFF804942878385C48B10EB1A0
:101130000A4A00E000226946281D00F0E3FF09B0DA
:10114000F0BD0EB1064A00E00022694605F10C0030
:1011500000F0A2FEF3E7000004000020452A000092
:101160008D2800000FB408B50399002904D004AA03
:1011700000926A4600F00FF801B05DF814FB10B55C
:1011800082680446002A05D0D4E904032168984700
:101190000020A06010BD2DE9FC4791460C00804660
:1011A00076D014F8011B39B125290ED04046FFF73F
:1011B000E5FC20780028F4D198F80C00002867D0CE
:1011C0004046BDE8FC47FFF7DABF00200122217846
:1011D0002B291BD02D2902D0302908D102E040F064
:1011E000010001E040F00200641C002AEFD100255C
:1011F0002A290ED02178A1F130020A2A11D205EB5A
:10120000850201EB4205641C303DF1E740F004002B
:10121000EAE7D9F800100B1DC9F800300968641C12
:101220000D44217800232E290BD114F8011FA1F1C0
:1012300030020A2A05D203EB830201EB4203303B62
:10124000F3E76C290DD068290BD0692921D00BDC7C
:10125000252918D0582931D063290ED0642915D1F9
:1012600017E014F8011FECE7702969D0732932D018
:1012700075291BD0782909D120E0D9F80000011D7B
:10128000C9F8001001784046FFF778FC641C90E72D
:101290006CE0D9F800100A1DC9F800200968CDE9F2
:1012A00000500A224046FFF7C7FCEFE7D9F80010CC
:1012B0000A1DC9F8002009680A2206E0D9F80010C2
:1012C0000A1DC9F8002009681022CDE900504046E7
:1012D00001F05AFCDAE7D9F8001000270A1DC9F816
:1012E00000200E68C00705D112E04046761C7F1C26
:1012F000FFF744FC31780029F7D104E02021404673
:101300006D1EFFF73BFCBD42C0D9002DF6D1BDE7F5
:101310004EB13046FFF72AF8074604E02021404648
:101320006D1EFFF72BFCBD4206D9002DF6D103E060
:101330004046761CFFF722FC31780029F8D1A5E75A
:10134000D9F80000011DC9F8001005683021404699
:10135000FFF714FC78214046FFF710FC082000211D
:10136000CDE90001034610222946B0E7BDE8FC871D
:1013700070B541EA4201DDE904564FF0A04441EA6C
:10138000830141EA052104EB800041EA0641C0F8EF
:10139000001770BD70B541EA4201DDE904564FF017
:1013A000A04441EA830141EA052104EB800041EABF
:1013B0000641C0F8001770BD70B541EA4201DDE991
:1013C00004564FF0A04441EA830141EA052104EBB1
:1013D000800041EA0641C0F8001770BD70B541EACF
:1013E0004201DDE904564FF0A04441EA830141EA9D
:1013F000052104EB800041EA0641C0F8001770BDEA
:101400001CB5002100910B4601220191FFF7D4FF8A
:101410001CBD1CB5002100910B4601220191FFF774
:10142000DDFF1CBD1CB500220B4600921146019247
:10143000FFF7C2FF1CBD1CB500220B4600921146EF
:101440000192FFF7CBFF1CBD1CB5002100910B469C
:10145000012201911146FFF79DFF1CBD1CB5002123
:1014600000910B46012201911146FFF7A5FF1CBD1B
:101470001CB5002100910B46012201911146FFF796
:10148000ADFF1CBD4FF0A04202EB8000D0F800275A
:1014900022F44032C0F80027D0F8002742EA014188
:1014A000C0F800177047000038B5094B44181B6896
:1014B00000936B4608E000BF53F82010D1F8205588
:1014C00020C2C1F82055401C8442F5D838BD000028
:1014D000602C00004FF0A04201218140C2F80C15A1
:1014E00070474FF0A04201218140C2F808157047B3
:1014F00001224FF0A043824011B1C3F80825704784
:10150000C3F80C2570470000034908B508440021C2
:1015100001600068009008BD00600040024940582A
:10152000012800D0002070470060004030B5154A07
:1015300001460020D2F8104423460AE0DB681D79FA
:10154000854205D1401C0A28F6DB4FF0FF3030BD44
:101550001B68002BF2D1431CF9D0CB681871D2F86C
:10156000103443B1DB68CC681B682360D2F81024C8
:10157000D268116030BDC2F81014C96800220A6038
:1015800030BD000020030020F0B595B01C46154684
:101590000F4608461A9E00F009FB182109A8FEF71D
:1015A000DAFE0E96CDE909540023082203A9384635
:1015B00000F011FB05980690BDF81000ADF81C0076
:1015C000BDF81200ADF81E0000208DF82100039830
:1015D000082600F00300012802D0022818D032E0CB
:1015E00003983346850AC0F3C2008DF820000398A3
:1015F0000FA9C0F38314A200384600F0ECFA09A842
:10160000009006AB22460FA9284600F02BFA1AE0FC
:101610000398840DC0F3C2008DF82000082C01D27D
:10162000254600E0082533462A460FA9384600F033
:10163000D2FA2E44641B09AB06AA29460FA800F073
:1016400079F9002CEAD1384600F0B6FA15B0F0BDB1
:101650007047012001F038B9084810B50178084AF0
:10166000515C19B1001D00F0E7FD02E00C3000F004
:10167000E1FCBDE81040002001F026B92800002060
:101680000000002008B5034A00924023024AFFF7F9
:101690007BFF08BD51250000880100200A4A01296E
:1016A00002EBC00007D0022907D0032907D0042984
:1016B00007D000207047022070470420704700794F
:1016C0007047407970470000682E000010B5FFF7A2
:1016D000C0FF04210348FFF729FF02490120C96820
:1016E000487110BD582E00002DE9F0478CB0FFF76F
:1016F0005DFA18B100200CB0BDE8F0877D4C0020E9
:10170000C4F81804BFF34F8F7B49A06802900D689E
:101710004FF00008284004EB80000BE0D4F81804D8
:1017200070B961680298814201D8A160E2E728405F
:1017300004EB80000C3002A9FFF716FB0028EDD166
:10174000002003AA029901EA050304EB8303491C64
:10175000DB6842F82030401C02910228F2D3039843
:1017600000F00300022802D001284DD0A7E0039822
:101770005022810D8946B2EB905F00D850210E4671
:1017800066F39F50039008315C4800F0C6F90700EB
:1017900078D000F00BFA4346082203A9384600F03F
:1017A00022FA029908F1080A2940681A8000001DEF
:1017B000864222D94F4D0C3530B1C2B204EB8101C3
:1017C000301A90460C3104E02946F2B200259046CA
:1017D0002846C6B25346384600F005FA0AEB08031D
:1017E00025B132462946384600F0FDF9029909F143
:1017F000030001EB900002903BE004EB81015346B3
:10180000324638460C31EFE70398C0F383100628C0
:1018100000D30620039960F38911C1F38310801C63
:1018200003918100354800F078F9070047D000F0B7
:10183000BDF94346082203A9384600F0D4F908F15F
:10184000080800260FE00298434600EA0501401C04
:1018500004EB81010290042238460C3100F0C3F9F8
:1018600008F10408761C0398C0F38310B042EAD84C
:1018700047B1D4F81054D4F8180478B1384600F0C1
:101880009BF931E01BE0E8684079012804D12A681F
:101890002846394612689047E8680568002DF2D15D
:1018A000384600F089F90020FFF747F8D4F818040B
:1018B00008B90298A0600020FFF741F814E0D4F8BE
:1018C000104405E02168204689688847E06804687C
:1018D000002CF7D10A480B49401AC008022101EB3D
:1018E000004009A100F01AF8FFF760F980F001004C
:1018F00001E700002003002044000020B02E00007B
:10190000A82E0000682E00004261636B656E647350
:1019100020666C75736865640000000000231A4639
:1019200000F040BF08B5012300926A4600F03AFF7C
:1019300008BD00002DE9F0470E4680461C46924641
:10194000082940D894F80C900020207319461046BE
:1019500000F076FD0025B54206D218F805201BA13F
:101960002046FFF7FFFB03E01AA12046FFF7FAFB32
:101970006D1C082DEFD318A12046FFF7F3FB0025BF
:10198000B54212D218F805707E2F08D8FEF7C6FCB3
:101990000068C05D10F03E0F01D03A4600E02E22F4
:1019A0000EA12046FFF7DEFB03E00DA12046FFF766
:1019B000D9FB6D1C082DE3D301222146504600F0CF
:1019C00021FD84F80C90BDE8F0870000202530321E
:1019D00078000000202020007C000000256300002B
:1019E00020000000064910B500200870054800F0EE
:1019F000E1F8002803D1044800F0FDF8002010BDF4
:101A000020030020B02E0000AC2C00000248034947
:101A1000401AC00870470000B02E0000682E000079
:101A200013B56846FFF788FA08B100201CBD0248CC
:101A3000009950F831001CBD682E000070B50848B0
:101A40000125D0F81044057007E0E0684571216871
:101A5000204649688847E0680468002CF5D170BDCD
:101A6000200300202DE9FF4781460C9D00200C46F5
:101A70002F7B2873984616462946184600F0E0FC4E
:101A8000072E42D2DFE806F004090F161F2A36009F
:101A900049462846FFF766FB37E049462846226854
:101AA000FFF760FB31E0D4E9002349462846FFF701
:101AB00059FB2AE0A0680090D4E900234946284653
:101AC000FFF750FB21E0D4E90201CDE90001D4E9A0
:101AD000002349462846FFF745FB16E004F10800BD
:101AE00007C88DE80700D4E9002349462846FFF7D8
:101AF00039FB0AE004F108000FC88DE80F00D4E9B3
:101B0000002349462846FFF72DFB00222946404680
:101B100000F078FC2F73BDE8FF872DE9F041058ABE
:101B200080462D1F4819C01CB0FBF5F0C6B24046D8
:101B3000FFF73CFA041E19D00020207101206071CB
:101B4000E58000272546761EC4F800800BE040465D
:101B5000FFF72CFA60B16179491C61712860054674
:101B60007F1CC0F80080B742F1D32046BDE8F08169
:101B7000204600F002F80020F8E72DE9F041457911
:101B800001466B1E002201E00968521C9A42FBD3F9
:101B90000F680146002605E038460C68FFF725FA75
:101BA0002146761CAE42F7D3BDE8F0810121001D2D
:101BB000FFF7E0B9FFF72EBA10B504460121001D6A
:101BC000FFF7EEF910F0FF0F04D12046BDE81040FA
:101BD000FFF7D3BF10BD1CB501920122009201AAEC
:101BE000FFF76AF91CBD1CB501920022009201AA00
:101BF000FFF762F91CBD8268002191608268116163
:101C0000826851618268D160826851608068016039
:101C100070474058002800D00120704740580028E5
:101C200000D00120704708B5002242504058009073
:101C300008BDD0F80403084000D001207047405888
:101C4000002800D00120704708B5002242504058BB
:101C5000009008BD0121B1EB507F01D101207047F8
:101C6000002070470121B1EB507F01D10120704766
:101C70000020704770B50D4600F02EFC04000FD018
:101C80000020FEF75AFE207920B10020FEF757FE13
:101C9000112070BD0120256020710020FEF74FFE4D
:101CA000002070BD10B500F017FC002802D0002104
:101CB0000160017110BD00002DE9FC470C4615467E
:101CC00001798046554A01EBC10002EB8006994636
:101CD000307F10B10820BDE8FC87514AD8F80000D9
:101CE000074652F82110FFF7C5FF08B11120F2E7AF
:101CF000C6E90059207B0128207802D8FFF7EAFBCB
:101D000001E0FFF7EEFB4FF0000ACDF800A0CDF8A0
:101D100004A02078534652460121FFF73BFB607830
:101D20004FF0FF35FF2806D08146FFF7D3FB48462A
:101D3000FFF78AFB00E0A946A078FF2809D000221F
:101D400005460123CDF800A01146CDF804A0FFF709
:101D500021FBA07886F82000E078F077E078FF2873
:101D60000BD0217911B1FFF7B5FB01E0FFF7B9FB0B
:101D7000E078FFF769FB2079B0772178C7F808157C
:101D8000C7F80C95C7F81055A068C7F82405217B43
:101D9000607B00B10120012904D0022905D003296C
:101DA00008D105E040F0020004E040F0040001E04A
:101DB00040F00600C7F85405A079C7F8C005072011
:101DC000C7F800053068012218B3D8F8000061791F
:101DD00040F3073000284FEA411104DB00F1E02016
:101DE00080F8001405E000F00F0000F1E02080F81A
:101DF000141DD8F8000040F30730002809DB00F07C
:101E00001F0102FA01F14009800000F1E020C0F852
:101E10000011504686F81DA032775CE714010020BF
:101E2000642C00002DE9F04105460F460079154964
:101E300000EBC00001EB80041646607F10B111205A
:101E4000BDE8F081206820B116F0140F01D1012007
:101E5000607797E80F0004F10C0888E80F00E07F36
:101E6000FF2806D0A17F11B1FFF73BFB01E0FFF790
:101E700031FB33463A4621462868BDE8F04100F080
:101E800033BC0000140100200149024800F044BDA9
:101E900038010020002000402DE9F041054600797E
:101EA00016460F4600EB40012D4A01EBC00102EB44
:101EB000810494F82A1011B10820BDE8F081294965
:101EC00051F820102868FFF7D5FE08B11120F4E77B
:101ED00039462846FEF748FD6660386920603000C4
:101EE0004FF001062FD03F7F4FF48E712868FFF727
:101EF0009AFE4FF4A2712868FFF795FE28681A49E8
:101F0000C0F8041328684FEA471140F3073000284F
:101F100004DB00F1E02080F8001405E000F00F0081
:101F200000F1E02080F8141D286840F307300028F5
:101F300009DB00F01F0106FA01F14009800000F101
:101F4000E020C0F8001128680421C0F80015002026
:101F5000A061E06184F8290044F8140FA675ACE78D
:101F600038010020682C0000800002002DE9F05F9D
:101F7000054600790B4600EB400101EBC000244907
:101F800001EB8004284600F045F810B11120BDE8AF
:101F9000F09F62614FF00009C4F82090A36084F8BC
:101FA00028904FF48E784E4641462868FFF73BFE56
:101FB00028684FF0010AC0F808A02146286800F000
:101FC0003BFC606808BBD5F800B067690FE000BF54
:101FD00094F8280008B10F2615E041465846FFF74F
:101FE0001DFE0028F4D02146584600F025FC206A4A
:101FF000B842F2D3574641462868FFF70FFE002843
:10200000F9D02868C760C4F814903046BFE70000D4
:1020100038010020007900EB400101EBC0000449C9
:1020200001EB80004069002800D0012070470000CB
:10203000380100202DE9F047044600794FF00009EF
:1020400000EB400101EBC000284901EB800720684C
:10205000C0F800957868B0B120682549C0F8081329
:10206000206840F3073000280DDB00F01F0201213B
:1020700091404009800000F1E020C0F88011BFF3DA
:102080004F8FBFF36F8F2068D0F80C25D0F81485E0
:10209000D0F80865D0F810554FF0FF31C0F814158E
:1020A000C0F80C152068C0F80815C0F81015501CB1
:1020B00002D01046FFF7A4F9B8F1FF3F02D0404626
:1020C000FFF79EF9681C02D02846FFF799F9701CAB
:1020D00002D03046FFF794F92068FFF7E3FD87F858
:1020E0002A90C7F80490BDE8F0870000380100206E
:1020F000840202000149024800F0BCBC64010020D7
:10210000002000402DE9F0410546164600790F46B3
:10211000154A00EBC00102EB810494F8201011B1C4
:102120000820BDE8F081114951F820102868FFF718
:10213000A1FD08B11120F4E739462846FEF758FC06
:102140006660386920601EB1397F2846FEF7C8FDF9
:1021500028680821C0F800150020A061E0616061D6
:10216000012184F82010DCE7640100206C2C0000C1
:102170002DE9F04704460E460079274900EBC000E0
:1021800001EB800517463046FFF76CFD30B1204665
:1021900000F044F820B11120BDE8F0871020FBE7E3
:1021A0006F61AE604FF490774FF0000839462068B9
:1021B000FFF74AFD4FF4AC7631462068FFF744FD47
:1021C0002068AA686969C0F84425C0F848152068E5
:1021D0004FF00109C0F808906868D0B9BA46514676
:1021E0002068FFF72CFD074631462068FFF727FDE2
:1021F0000743F4D010B14FF00F0808E02068C0F892
:102200000C9031462068FFF71AFD0028F9D0002015
:1022100068614046C0E7000064010020007905497C
:1022200000EBC00001EB80004069002800D00120D5
:1022300070470000640100202DE9F0470646007950
:102240003D4900EBC00001EB800534686868012758
:10225000A8B13A49C4F80813306840F307300028A1
:102260000DDB00F01F0107FA01F14009800000F1C9
:10227000E020C0F88011BFF34F8FBFF36F8FD4F809
:10228000000220F02000C4F80002A8694FF4A278F0
:1022900020B141462046FFF7D7FC67604FF4AC7988
:1022A00049462046FFF7D0FCE760474649462046AE
:1022B000FFF7C5FC0028F9D0A86928B139462046A7
:1022C000FFF7BDFC0028F1D04FF0000AC4F800A5CC
:1022D0003068D0F80C25D0F81495D0F80885D0F8DF
:1022E00010754FF0FF31C0F80C15C0F814153068A8
:1022F000C0F80815C0F81015501C02D01046FFF7A2
:1023000088F8B9F1FF3F02D04846FFF782F8781C01
:1023100002D03846FFF77DF8B8F1FF3F02D04046C3
:10232000FFF777F82046FFF7BDFC85F820A0C5F839
:1023300004A0BDE8F0870000640100201003420003
:102340002DE9F05F2A4F06464FF0A04A4FF0010BEF
:102350000024381990F95010491C3CD090F85000D6
:10236000314620F0C0052846FEF76CFE20B320461B
:1023700000F040F881460AEB8500D0F80007C0F372
:102380000148B8F1020F18D002212846FFF77AF869
:102390000BFA05F1CAF820152846FEF713FC57F88A
:1023A00020204AB14846B9F1030F11D0B8F1020F0D
:1023B00005D0B8F1030F07D00DE00321E5E748464B
:1023C000B9F1010F04D006E04846B9F1020F02D17D
:1023D000014628469047641C042CBAD3324601219A
:1023E0000020FFF761F830680028B1D1BDE8F09F08
:1023F000B80000200249084490F850008009704756
:10240000B800002010B50C46017A052908D0407AA2
:1024100038B1084808A102682046FEF7A3FE00E094
:102420001AB106A12046FEF79DFE2046BDE81040E9
:10243000FEF7A5BE74000020257300000D0A000001
:1024400038B5C3880D46044633B114A0009015A2D8
:1024500016A12846FEF786FE217A05291CD0607A4F
:1024600048B1A088FFF71AF9164951F8202016A1A3
:102470002846FEF777FEA0880021FFF7D1FA034631
:102480001049207A143951F8202001B02846BDE8BF
:1024900030400EA1FEF766BE38BD00001B5B306DFC
:1024A000000000001B5B313B33316D0025734C6F26
:1024B00067732064726F7070656420282564292515
:1024C000730D0A0074000020257300003C25733E44
:1024D0002025733A200000000349884201D10348B7
:1024E0007047002070470000002000400C000020D2
:1024F00070B5054688690C4600284FF4847128465B
:102500000AD0FFF790FBD5F81805626AE168885495
:10251000606A401C606270BDFFF785FBD5F8180546
:1025200070BD1FB501238DF80030CDE90121D0E940
:102530000012684690471FBD1FB501238DF800307B
:10254000CDE90121D0E90012684690471FBD000087
:1025500070B50D4C0020D2B22070201D0B4D0378B9
:10256000EB5C1BB1001DFFF703FE02E00C30FFF730
:10257000FDFC08B1FEF7D6F96078002802D021787A
:102580000029FAD070BD00002400002000000020C7
:1025900001490120487070479800002010B50821BB
:1025A00086B041EA0010010A8DF804108DF805008C
:1025B0000220002101AA1154401CC0B20628FAD3FF
:1025C0000D4C0622617003AB01A90C480092FEF786
:1025D00089FD18B1FEF7A6F900E020BF6078002859
:1025E000FBD0DDF80E009DF8111000BA20F0FF00BE
:1025F00006B0084310BD000098000020C82C000061
:102600003EB54FF6FF7202EA0010020A8DF8042070
:102610008DF80500080A8DF8060000200A4C8DF898
:10262000071002900422607002AB01A907480092D3
:10263000FEF758FD18B1FEF775F900E020BF60788D
:102640000028FBD03EBD000098000020C82C0000F0
:1026500010B54FF6FF7286B002EA0010020A8DF83C
:1026600004208DF80500080E8DF80600080C8DF882
:102670000700080A8DF8080000200B4C8DF809109F
:10268000039004900622607003AB01A907480092F2
:10269000FEF728FD18B1FEF745F900E020BF60788D
:1026A0000028FBD006B010BD98000020C82C000008
:1026B00000B585B00A4601788DF800104168019197
:1026C000017A8DF80810C1680391007C8DF8100024
:1026D000044850F822100C3850F8222068469047E1
:1026E00005B000BDAC0000202DE9F8430446106899
:1026F0001E4615460F464FF0000810B1FFF7AAFA24
:10270000F8B1A86810B1FFF7A5FAD0B1D5E900017A
:10271000C4F84405C4F84815D5E90201C4F83405E5
:10272000C4F838154FF48C754046C4F81881D4F8B5
:1027300018110091F2074FF0010107D0C4F85015AD
:1027400006E087F81D801020BDE8F883C4F8500526
:10275000B20702D5C4F8401501E0C4F840053007BF
:1027600000D42161386848B146F38000401C4FF026
:10277000400014D0C4F804030020E5E729462046B1
:10278000FFF747FA0028F9D0F87FFF28F4D0B97F87
:1027900011B1FEF79FFEEFE7FEF7A3FEECE7C4F8EA
:1027A0000803E9E72DE9F84F074621489146884696
:1027B00005681E46012269461846FEF799F9DFF8BA
:1027C00074A060B3009800210446801C0AE000BF9A
:1027D00000EA050259F821C00AEB8202401C491C9C
:1027E000C2F80CC0B142F3D34FEA1749FEF7F2F931
:1027F000611C29400AEB810149EA00422C40CA6071
:102800000AEB8401C86867F3C50066F3891068F3B2
:102810009F2020F00300401C20F00400C8609AF8BC
:10282000000001E0FEF760FF0028FBD1BDE8F88F53
:10283000440000202003002070B50C4605464FF4EC
:102840008E71FFF7F0F9216AA068415C206A401C94
:102850002062C5F81C1570BD1FB500228DF8002040
:102860000291816801914261D0E900126846904767
:102870001FBD1FB500228DF80020029181680191D3
:102880004261D0E90012684690471FBD1FB50A4655
:1028900001788DF8001041680191017A8DF80810D7
:1028A000C0680390044850F82210001F50F82220FE
:1028B000684690471FBD0000080000200149012024
:1028C000087070472400002010B588B0044620220C
:1028D0000E496846FDF726FD06200090C01F0190B6
:1028E000029003904FF0EB7006900CB1084A00E0A4
:1028F000002269460748FEF701FC08B1FEF712F80E
:102900000448001F447008B010BD00008C2C00006B
:10291000BD280000280000202DE9FF470C46054691
:102920004FF40071FFF785F901274FF40178002675
:1029300018B34FF4927949462846FFF76FF9E0B192
:1029400049462846FFF76FF9C5F8088394F829002F
:1029500000B96F6002208DF80000D5F88004C5F83A
:1029600080040390A0690290E0680190A661E6618E
:10297000D4E900126846904728E004212846FFF772
:1029800058F918B34FF484712846FFF747F9E8B1B6
:1029900021462846FFF7ACFD616AA069884215D13F
:1029A000E06938B1E268616AA0612069E661666247
:1029B000E06008E094F8290000B96F60C5F808836A
:1029C000A661E268616A2046FFF7ABFD4FF48E789E
:1029D00041462846FFF722F980B16069216A8142A9
:1029E00002D294F8280028B341462846FFF71BF985
:1029F000606918B161692046FFF72EFF4FF4A27895
:102A000041462846FFF70AF9002818D041462846D3
:102A1000FFF709F994F8290000B12F60A069002898
:102A20000DD0A661E268616A04B02046BDE8F047B7
:102A3000FFF777BD21462846FFF7FEFEDEE7BDE83B
:102A4000FF8700001FB50A4601788DF80010416825
:102A50000191017A8DF80810C0680390044850F87D
:102A60002210001F50F82220684690471FBD00002A
:102A7000080000202DE9FF410C464FF492770546EF
:102A80003946FFF7DCF80026B8B139462846FFF78B
:102A9000DBF802208DF80000D5F88004C5F880042A
:102AA0000390D5F83C050290E0680190A661E661CC
:102AB000D4E900126846904723E04FF488773946FE
:102AC0002846FFF7BCF8E0B139462846FFF7BCF8C6
:102AD000D5F83C15A069884213D1E06960B1E2687D
:102AE000D5F8000220F02000C5F80002E069A061DE
:102AF0002069E661E06001E0A661E2682046FFF738
:102B00001BFD4FF4A27739462846FFF798F868B1C5
:102B100039462846FFF798F8A06938B1A661E66102
:102B2000D5F83C152046E268FFF706FD4FF4907695
:102B300031462846FFF783F860B131462846FFF753
:102B400083F80120E860606920B1D5F84C15204673
:102B5000FFF78FFE4FF4AC7631462846FFF76FF84B
:102B600000280ED031462846FFF76EF8606900282D
:102B700007D0D5F84C1504B02046BDE8F041FFF76A
:102B800078BEBDE8FF8100002DE9F05F8346DDE9F6
:102B90000A4A994690460D460846012703E000BFC1
:102BA000B0FBF8F07F1C4045FAD2B94500D94F463A
:102BB0005FEACA7012D18CB15FEA8A7002D5B9F1AE
:102BC000000F01D0202607E0302605E031465846A8
:102BD000641EFDF7D3FF0CB1A742F7D35FF00106E7
:102BE000B9F1010F02D9A9F1010903E0B5FBF6F033
:102BF000404502D306FB08F6F2E7DFF83C9000BF41
:102C0000B5FBF6F000FB165519F800105846FDF715
:102C1000B5FFB6FBF8F6002EF2D15FEACA7009D014
:102C2000002C07D0A74205D220215846641EFDF78C
:102C3000A5FFF5E7BDE8F09F702C00000000000044
:102C40000338FDD87047111213140D0E0F10000039
:102C5000FFFFFFFF0006FF00000000400000000033
:102C600000000050F9040000891E0000F52000005B
:102C700030313233343536373839414243444546B2
:102C8000851600005916000051160000FFFFFFFFD7
:102C9000FFFFFFFFFFFFFFFFFFFFFFFF0000000040
:102CA000000000000000D60106010000880200209C
:102CB0007F0000000803002000000000000000006A
:102CC0000338FDD8704700000000000000300040CD
:102CD0000000000001000000FFFFFFFF06FF0000F2
:102CE00000000040000000000040404040404040E4
:102CF00040404141414141404040404040404040CF
:102D00004040404040404040400502020202020272
:102D100002020202020202020220202020202020C1
:102D200020202002020202020202909090909090D5
:102D30001010101010101010101010101010101093
:102D40001010101002020202020288888888888807
:102D500008080808080808080808080808080808F3
:102D6000080808080202020240000000E92C0000E6
:102D70007761726E696E6700646562756700000056
:102D80001B5B313B33306D001B5B306D000000007E
:102D90001B5B313B33316D001B5B313B33326D00CC
:102DA0001B5B313B33336D001B5B313B33346D00B8
:102DB0001B5B313B33356D001B5B313B33366D00A4
:102DC0001B5B313B33376D00696E666F000000009E
:102DD0006572726F720000004750494F5445000001
:102DE000505253005350494D000000005541525479
:102DF0000000000055415254450000006170705FB2
:102E0000627574746F6E00006170705F74696D65D7
:102E100072000000736F72746C69737400000000BC
:102E2000756172745F6C6F675F6261636B656E641E
:102E30000000000061707000C42E0000000000203F
:102E4000A000000080080000642F0000A000002007
:102E5000A026000090080000802C00000000000068
:102E6000202E00003C000020D82D000000000000B3
:102E7000E02D000000000000E42D00000000000034
:102E8000EC2D000000000000F42D00000000000008
:102E9000FC2D000000000000082E000000000000D3
:102EA000142E000000000000342E00000000030378
:102EB000500000204800002050000020C8010020E1
:102EC00018000000000000000000000000000000EA
:102ED00000000000000000000000000000000000F2
:102EE00000000000000000000000000000000000E2
:102EF0000020004000000000002000400000000012
:102F000000000000FF000000FF00000000000000C3
:102F100000000000000000000000000000000000B1
:102F20000000000000000000D02D0000702D000007
:102F3000C82D0000782D0000882D0000802D000095
:102F4000902D0000982D0000A02D0000A82D00005D
:102F5000B02D0000B82D0000C02D000000000000C2
:042F60000090D0030A
:0400000500000201F4
:00000001FF
