:020000040000FA
:10000000B0270020F90200000103000003030000F4
:1000100005030000070300000903000000000000C2
:100020000000000000000000000000000B030000C2
:100030000D030000000000000F030000110300008A
:100040001303000013030000E1100000650D000021
:100050001303000013030000B10C000013030000A1
:100060001303000013030000130300001303000038
:100070001303000013030000130300001303000028
:1000800013030000550D00001303000013030000CC
:100090001303000013030000130300001303000008
:1000A00013030000130300001303000013030000F8
:1000B0001303000013030000000000000000000014
:1000C00013030000130300001303000013030000D8
:1000D00013030000130300001303000000000000DE
:1000E0000000000000000000000000000000000010
:1000F0000000000000000000000000000000000000
:1001000000000000000000000000000000000000EF
:1001100000000000000000000000000000000000DF
:1001200000000000000000000000000000000000CF
:1001300000000000000000000000000000000000BF
:1001400000000000000000000000000000000000AF
:10015000000000000000000000000000000000009F
:10016000000000000000000000000000000000008F
:10017000000000000000000000000000000000007F
:10018000000000000000000000000000000000006F
:10019000000000000000000000000000000000005F
:1001A000000000000000000000000000000000004F
:1001B000000000000000000000000000000000003F
:1001C000000000000000000000000000000000002F
:1001D000000000000000000000000000000000001F
:1001E000000000000000000000000000000000000F
:1001F00000000000000000000000000000000000FF
:10020000DFF80CD000F07EFA004800478D170000A0
:10021000B027002030B4044654E8000F0D4644E8EF
:100220000053002BF8D1156030BC704730B4044641
:1002300054E8000F40EA010544E80053002BF7D1D1
:10024000156030BC704730B4044654E8000F00EA33
:10025000010544E80053002BF7D1156030BC70470E
:1002600030B4044654E8000F80EA010544E8005326
:10027000002BF7D1156030BC704730B4044654E809
:10028000000F00EB010544E80053002BF7D1156087
:1002900030BC704730B4044654E8000FA0EB0105B1
:1002A00044E80053002BF7D1156030BC704770B4A0
:1002B00004464FF0000054E8006F0D68AE4207BFDF
:1002C00044E80023012044E800630E60002B1CBFBB
:1002D0000020F0E770BC704730B4044654E8000FCB
:1002E00088422CBF451A054644E80053002BF5D13F
:1002F000156030BC7047000006488047064800473C
:10030000FEE7FEE7FEE7FEE7FEE7FEE7FEE7FEE7C5
:10031000FEE7FEE7B90D000001020000202A04DB21
:10032000203A00FA02F1002070479140C2F1200308
:1003300020FA03F3194390407047000000487047CB
:10034000FC3F000040EA01039B0703D009E008C915
:10035000121F08C0042AFAD203E011F8013B00F88A
:10036000013B521EF9D27047D2B201E000F8012BD6
:10037000491EFBD270470022F6E710B513460A4625
:1003800004461946FFF7F0FF204610BD421C10F846
:10039000011B0029FBD1801A70472DE9FE4F81EA2D
:1003A000030404F0004421F0004100944FF0000BDE
:1003B00023F0004350EA01045ED052EA03045BD00C
:1003C000C3F30A54C1F30A552C44A4F2F334019444
:1003D000A0FB0254C1F3130141F48011C3F31303D2
:1003E00043F4801301FB024400FB034E840A970A86
:1003F00044EA815447EA8357A4FB076802958D0AB3
:1004000005FB07854FEA932C04FB0C542705029D3E
:100410004FEA065847EA1637B5EB08056EEB070CAE
:10042000870E920E47EA811742EA8312A7FB020168
:10043000B6EB0B0164EB00042B0D43EA0C335E18A2
:1004400044EB1C50DA465146E7FB0201C5F31304A6
:100450004FEA0B3343EA14534FEA0432019C43EA58
:100460000603A4F10C040294009CCDE900B400F052
:10047000FAF803B0BDE8F08F00200146F9E72DE956
:10048000F04D81EA030404F0004B21F000451446CE
:100490004FF0000A23F0004150EA050220D054EA50
:1004A00001021DD0C5F30A570246C5F31303C1F379
:1004B0001300C1F30A5640F4801543F48013A7EBF0
:1004C0000608101BD64608F2FD3873EB050002D370
:1004D00008F1010801E092185B41B8F1000F03DA5E
:1004E00000200146BDE8F08D00204FF48011064643
:1004F00084460EE0171B73EB050705D3121B63EB55
:10050000050306434CEA010C49084FEA30009218F3
:100510005B4150EA0107EDD152EA030012D082EAB2
:10052000040083EA0501084305D0101BAB4106D245
:100530000122002306E000224FF0004302E06FF0AA
:10054000010253101AEB06004CEB085110EB0A00A5
:1005500041EB0B01BDE8F04D00F076B800F0004231
:1005600030F000400AD0C10D01F56071C0F31600F3
:1005700042EA0151C208400711437047002001467A
:10058000704701F0004330B421F0004150EA01020D
:1005900006D00A0DA2F56072C1F31301002A02DC35
:1005A00030BC00207047440F44EAC104C100E01889
:1005B00030BC00EBC25000F010B8202A04DB203A17
:1005C00021FA02F00021704721FA02F3D040C2F173
:1005D000200291400843194670470029A8BF704780
:1005E000401C490008BF20F00100704710B4B0FA69
:1005F00080FC00FA0CF050EA010404BF10BC704704
:1006000049B1CCF1200421FA04F411FA0CF118BF1D
:10061000012121430843A3EB0C01CB1D4FEA0061EC
:100620004FEA102042BF002010BC704700EBC350BF
:1006300010440029A4BF10BC7047401C490008BFEB
:1006400020F0010010BC704710B5141E73F10004B7
:1006500008DA401C41F1000192185B411A4301D1B4
:1006600020F0010010BD2DE9F04D92469B4611B1DE
:10067000B1FA81F202E0B0FA80F220329046FFF740
:100680004DFE04460F4640EA0A0041EA0B0153467C
:100690005A46084313D0114653EA010019D0C8F155
:1006A00040025046FFF789FF05460E465046594620
:1006B0004246FFF733FE084305D0012004E0204600
:1006C0003946BDE8F08D0020054346EAE0762C432C
:1006D00037430A986305E40AA0EB08000022FD0AEC
:1006E00044EA47540A3002D500200146E9E70105F3
:1006F00010196941DDE9084500196941BDE8F04D6F
:10070000A2E70000064C074D06E0E06840F0010358
:1007100094E8070098471034AC42F6D3FFF774FD15
:10072000C8400000E8400000F1EE600A10B580EE1D
:10073000801AB7EE000ADFED0E0A0E480E49401A85
:10074000C008032101EB00400CA131EE400A20EE6D
:10075000200ABDEEC00A10EE104A23461A4602F0E7
:10076000F0F92146BDE81040002003F0BBB80000BE
:100770000000004D38410000F84000004149476149
:10078000696E3A202578202D2025640A000000009B
:1007900080EE801AB7EE000ADFED0D0A0D480E4913
:1007A00010B5401AC008032101EB00400BA131EE47
:1007B000400A20EE200ABDEEC00A10EE104A224682
:1007C00002F0B8F92146BDE81040022003F08AB8D3
:1007D0000000004D38410000F840000041564761DC
:1007E000696E3A2025640A0010B54FF4107003F0CA
:1007F0001FF804460A480B492246401AC008032144
:1008000001EB004008A102F095F9601C06D0E0075A
:1008100004D01321302003F065F8012010BD000042
:1008200038410000F84000006D5352656164793A28
:100830002025780A0000000010B54FF4107002F077
:10084000F7FF04460A480B492246401AC008032114
:1008500001EB004008A102F06DF9601C06D0E00732
:1008600004D04321302003F03DF8012010BD0000EA
:1008700038410000F84000006D5352656164793AD8
:100880002025780A0000000070B505462DED048B88
:1008900082B04FF4087002F0CBFF08EE100A4B480C
:1008A0004B4985ED008A401AC108032000EB014046
:1008B00018EE102A044647A102F03CF9B8EEC80A27
:1008C0009FED499A20EE090A85ED010AB5EEC00AAE
:1008D000F1EE10FAFDEEC00AF8EEE00A02DD70EE6D
:1008E000600A01E070EEC00ADFED408AB5EEC00A92
:1008F0003F4E60EEA80AFDEEE00AF1EE10FACDEDF3
:10090000000A05D210EE100AB04201D239A200E06E
:1009100034A2BDEEC00A204637A110EE103A02F014
:1009200018F940F2212002F083FF0246A860204619
:1009300038A102F0FFF84FF4097002F079FF08EED9
:10094000100A204685ED038A18EE102A36A102F01F
:10095000F1F8B8EEC80A20EE090A85ED040AB5EEF2
:10096000C00AF1EE10FAFDEEC00AF8EEE00A02DD70
:1009700070EE600A01E070EEC00AB5EEC00A60EEEB
:10098000A80AFDEEE00AF1EE10FACDED000A05D25C
:1009900010EE100AB04201D216A200E011A2BDEE84
:1009A000C00A204625A110EE103A02F0D2F840F21B
:1009B000252002F03DFF686102B00246BDEC048BC9
:1009C000204625A1BDE8704002F0B4B838410000CF
:1009D000F84000006D5375726541494343526567A5
:1009E0003A202578000000000000003A0000C842CC
:1009F000000080BF2D0000006D53757265414943B2
:100A00004356616C75653A20257325642E25303276
:100A1000640000006D53757265414943455254525C
:100A200065673A2025640A006D5375726541564327
:100A3000435265673A2025780A0000006D537572AD
:100A4000654156434356616C75653A2025732564AC
:100A50002E253032640000006D5375726541564397
:100A60004552545265673A2025640A00002130201F
:100A700002F038BF10B5022140F2B94002F00AFF7F
:100A80004FF47A714C2002F02DFF052140F2914085
:100A900002F000FF4FF4406140F2AF4002F0FAFE76
:100AA000002140F2924002F0F5FE0C4940F20F4066
:100AB00002F018FF0021202002F014FF6FF00A015D
:100AC000032002F00FFF0021042002F00BFFBDE81D
:100AD000104001214FF4966002F0DCBE28EA2200AB
:100AE00010B504462DED028B4FF4027002F0A0FE0B
:100AF00000EE100ADFED200A84ED000AB8EEC00A0D
:100B00004FF4836020EE200A84ED010A02F090FE8B
:100B1000A060401C00EE100A9FED181AF8EEC00A03
:100B200081EE200A10EE100AB0F17E5F04DA10EEBA
:100B3000100A10F1814F01D39FED110A40F292404B
:100B400084ED030A02F04CFEC00602D49FED0D8A2C
:100B500001E09FED0D8A40F2854002F041FE00B2B7
:100B600000EE100A2061B8EEC00A20EE080A84EDFB
:100B7000050ABDEC028B10BD0000003200007A4D6A
:100B8000000000000000903CCDCCAC3C10B5044609
:100B90002DED028BD0ED068A4FF4017002F048FE75
:100BA00000EE100A9FED198A84ED000AB8EEC00A23
:100BB00040F2072020EE280AC0EE080A80EE880ADC
:100BC00084ED010A02F034FE00EE100A40F2062025
:100BD00084ED020AB8EEC00A20EE280AC0EE080A28
:100BE00080EE880A84ED030A02F022FE00EE100A6D
:100BF0002061B8EEC00A20EE280AC0EE080A80EE96
:100C0000880A84ED050ABDEC028B10BD00007A4411
:100C100010B504462DED028B90ED028A40F20220C1
:100C200002F006FE00EE100A40F2032084ED000AF6
:100C3000B8EEC00A60EE080A9FED0D8A80EE880AC1
:100C400084ED010AD4ED058A02F0F2FD00EE100AEF
:100C50009FED081AE060B8EEC00A20EE280AC0EE48
:100C6000080A80EE810A84ED040ABDEC028B10BDF7
:100C70000024744900007A4470B50C4901244FF0F7
:100C8000A0450A782AB905EB80030322C3F80027A0
:100C90000C708440C5F80C45642001F0E3FAC5F8F7
:100CA0000845BDE87040642001F0DCBAA0000020D7
:100CB0002DE9F8430025DFF894804FF48076012475
:100CC0002F460095304601F031FD38B1D8F80403C5
:100CD000204203D0304601F01FFD2543361D64003D
:100CE0007F1CB6B2082FEDD34FF4BE74204601F03E
:100CF0001DFD48B1204601F00FFD45F000456A4654
:100D00000121002001F0D8FC15F0FF0F16D00126BC
:100D100000242E420ED008EB8401D1F81005D1F842
:100D20001015C0F304200A4AC1F3014152F82420EF
:100D300002B190477600641C082CEAD3002D02DA39
:100D4000684602F01FFCBDE8F88300000060004028
:100D50002401002002490248091F09680068084769
:100D600024000020F8B51248124E04464FF48C714E
:100D700002F071F800281AD00025C4F81851D4F8F0
:100D800018010090F07F3446FF2806D0A17F11B1F2
:100D900001F0A8FC01E001F0ACFC65772572D4E914
:100DA000002101B004F10800BDE8F0401047F8BD93
:100DB0000030004080010020F0B5B74AB7494FF03D
:100DC00080541368D4F830010978D4F83421451CD4
:100DD000C1F3031106D0844601270025BCF1060F9C
:100DE00003D00AE003F0FF0CF6E7B4F82463DFF861
:100DF000B0C2C6F30426CCF80060DEB2062E06D1DF
:100E0000032904D1DFF8A0C2A64ECCF87460461CBA
:100E100004D08446BCF1060F03D00AE003F0FF0CB7
:100E2000F8E7D4F84462DFF884C2C6F34236CCF85F
:100E30000060DEB2062E08D1032906D19C4ED6F8FA
:100E400000C02CF0807CC6F800C0461C04D084464C
:100E5000BCF1060F03D00BE003F0FF0CF8E74FF0F6
:100E60008046C6F80C51C6F81051904E361F3560BA
:100E7000DEB2062E08D1032906D1DFF830C20326E0
:100E80000CF1640CCCF80060DEB2062E11D10329FF
:100E90000FD1DFF820C20526CCF80060854E7836E9
:100EA0003760844E083635600CF1040C3F26CCF8D0
:100EB0000060461C06D084464FEA0206BCF1060FCD
:100EC00004D081E003F0FF0C0E46F7E7032E7BD041
:100ED000042E79D0784E3668DFF8E0C1CCF8006097
:100EE000754E361D36680CF1040CCCF80060724E5D
:100EF000083636680CF1040CCCF800606E4E0C36E7
:100F000036680CF1040CCCF800606B4E1036366875
:100F10000CF1040CCCF80060674E143636680CF106
:100F2000040CCCF80060644E18363668DFF88CC1CB
:100F30000CF1200CCCF800605F4E1C3636680CF1CA
:100F4000040CCCF800605C4E203636680CF1040CC2
:100F5000CCF80060584E243636680CF1040CCCF8FE
:100F60000060554E283636680CF1040CCCF8006051
:100F7000514E2C3636680CF1040CCCF800604E4E05
:100F800030363668DFF834C10CF1400CCCF8006024
:100F9000494E343636680CF1040CCCF80060464EED
:100FA000383636680CF1040CCCF80060424E3C3602
:100FB00036680CF1040CCCF800603F4E40363668C1
:100FC0000CF1040CCCF80060461C05D04FEA000C74
:100FD000BCF1060F03D008E003F0FF0CF8E7D4F8EB
:100FE0005842374E04F04F043460441C03D003468B
:100FF000062B02D008E0DBB2FAE732490B68DB07C8
:1010000002D06FF001030B6006280AD1032A08D032
:10101000042A06D0052A04D02B48016841F48061D7
:10102000016023487438016841F470010160BFF326
:101030004F8FBFF36F8F4FF01021D1F800020028BF
:1010400003DBD1F80402002822DA204A1760204886
:101050000368002BFCD01523C1F800320468002C73
:10106000FCD0C1F8043201680029FCD01560016889
:101070000029FCD0BFF34F8F0D48F0380168154AA6
:1010800001F4E06111430160BFF34F8F00BFFDE742
:10109000124911480860F0BDE00F00F0E80F00F0C1
:1010A000403501400DF0ADBA00C007403C0500409E
:1010B000FCED00E0105600400404001020C5004084
:1010C000E40E0040000400403C17004004E50140ED
:1010D00000E401400400FA050090D003A4000020C1
:1010E00001480068004700001400002002E008C822
:1010F000121F08C1002AFAD170477047002001E092
:1011000001C1121F002AFBD17047000072B601F026
:10111000B7FD00BF01F0F0FB0028FBD111481249D8
:10112000401AC408012000EB044010A101F0FEFCAD
:1011300011480068C00700D000BE022000EB044048
:101140000EA101F0F3FCBFF34F8F0B48E4380168A8
:101150000E4A01F4E06111430160BFF34F8F00BFFD
:10116000FDE7000038410000F8400000466174616E
:101170006C206572726F7200F0ED00E05379737449
:10118000656D207265736574000000000400FA0547
:101190000EB500210091CDE901106A4644F201002C
:1011A000FFF7B4FF0EBD00F003B800F009B800006F
:1011B00072B602480168491C016070471C0000209B
:1011C00003490868401E086000D162B670470000FD
:1011D0001C0000202DE9F041064608680C46411C21
:1011E0004FF0A0474FF0010506D005FA00F1C7F80F
:1011F0000815206801F03AFA6068411C02D000210D
:1012000001F018FA3168A069C1F82405607D227DDB
:1012100031681043C1F86C05D4E900123068C0F899
:101220001425C0F80C15207D012815D1A068411C9B
:1012300002D0002101F0FEF9E068411C05D0854094
:10124000C7F80855E06801F011FAD4E902123068D5
:10125000C0F80825C0F81015BDE8F0812DE9F0416F
:10126000064608680C46411C4FF0A0474FF00105A8
:1012700006D005FA00F1C7F80815206801F000FA59
:101280006068411C02D0002101F0DDF93168A069DD
:10129000C1F82405607D217D32680843C2F86C05E1
:1012A000D4E900123068C0F80C15C0F81425207D70
:1012B000012815D1A068411C02D0002101F0C3F91A
:1012C000E068411C05D08540C7F80855E06801F08A
:1012D000D7F9D4E902123068C0F80825C0F8101513
:1012E000BDE8F0812DE9FC410646C0074FF000053E
:1012F0000ED0104F00240122385D009500231146C6
:10130000019501F03DF9641C042CF4D300F01CF8A5
:10131000B0070DD5074E0024361D0022305D032393
:1013200000951146019501F02BF9641C042CF4D3AF
:10133000BDE8FC81D63E00000249085C012101F0B5
:10134000DFB90000D63E000010B500242046FFF7AC
:10135000F3FF641C042CF9D310BD00002DE9F04705
:101360000546861C91460F464FF0010A0020FFF704
:101370001AFF1B4C04F21C4860683860D4E9010174
:10138000184F401A3968081A0EE00121404600F053
:10139000E9FE00F0A9F90146404600F0E3FED4E979
:1013A0000101401A3968081A401C8642EDD8B9F18B
:1013B000000F03D0052065F3891002E0062065F3D5
:1013C0009F5061683A68114004EB8101C860606811
:1013D000304460600020FFF7E8FE5046BDE8F0872B
:1013E0008C0300204C00002070B50D4604460A29ED
:1013F00002D10D21FFF7F8FFA0682268411CA1600F
:101400001554D4E90101814204D32046BDE870405F
:1014100000F0BDBF70BD0000044881684068814293
:1014200001D1012070470020704700008C0300208C
:1014300020EE200A10B510EE100AFFF78FF841ECED
:10144000100B53EC102B9FED050B51EC100BFFF71D
:1014500016F8FFF796F800EE100A10BDA60A46250A
:1014600075D22A4080EE201AB7EE000A10B5044665
:1014700031EE000A10EE100AFFF770F89FED121B14
:1014800053EC112BFEF789FF9FED111B53EC112B31
:10149000FEF7F5FFFFF775F800EE100ADFED0E0A14
:1014A00084ED000A20EE200A10EE100AFFF756F82D
:1014B0009FED0A1B53EC112BFEF76FFFFFF761F84E
:1014C00000EE100A10BD00001B0DE02D90A0D63FCD
:1014D0000000000000806B4000005C43D751D50441
:1014E00051F7424020EE200A10B510EE100AFFF727
:1014F00035F89FED051B53EC112BFEF74EFFFFF760
:1015000040F800EE100A10BDDC23E5380197213FBA
:101510000249084490F9300070470000240100207F
:1015200010B50021024800F028FE80F3100010BD25
:10153000A80700201FB5114B0FCB8DE80F001C2012
:101540008DF803001E208DF802001F208DF8010089
:101550001D208DF8000009480023094A694610380B
:1015600000F090FE08B1FFF713FE01214FF49060E8
:1015700002F090F904B0012010BD0000683F0000A7
:10158000D53700002DE9FC5F0E008346DDE90C47EE
:10159000C6F1000098469246814600D408460125CF
:1015A00003E000BF90FBFAF06D1C5045FADAA84545
:1015B00000D9454624B1002E01DB780700D5641E12
:1015C000B80702D5B8F1000F0AD0F80708D13CB12E
:1015D000A54205D220215846641EFFF705FFF6E715
:1015E000002E02DA4E462D2102E0780703D52B218A
:1015F0005846FFF7F9FE07F0030002280BD1B8F1B7
:10160000000F08D13CB1A54205D230215846641ED6
:10161000FFF7EAFEF6E7CDE900474346524631467A
:10162000584602F0FBFBBDE8FC9F000070B50D467C
:10163000044600684FF4887101F028FC4FF4907163
:10164000206801F023FC4FF49271206801F01EFC29
:101650004FF4A271206801F019FC4FF4AC712068BE
:1016600001F014FC20681249C0F8041320686907CF
:1016700040F30730090E002804DB00F1E02080F879
:10168000001405E000F00F0000F1E02080F8141DC8
:10169000206840F30730002809DB00F01F02012119
:1016A00091404009800000F1E020C0F8001170BDB9
:1016B00010034200024600201268530713D502F0BF
:1016C0000300012802D002280CD105E0C2F38310E8
:1016D0000B68801C184404E00223086803EB925254
:1016E00010440860012070472DE9FF41002624487E
:1016F00000F035FD2248001F074600F030FD214C68
:101700002149A06800900D6800E0009869462840D3
:1017100004EB80000C30FFF7CDFF0028F5D101AAC3
:10172000009901EA050304EB8303491CDB6842F8D6
:101730002030401C00910228F2D3019800F00300F1
:1017400001280BD0022810D10198032101EB905001
:101750000099BDF80A6001EB900005E00198BDF822
:101760000A60C0F3831008440090384600F0F4FC8F
:1017700008B10098A06004B03046BDE8F0810000D8
:10178000A40700208C0300204C0000202DE9F04726
:1017900001202DED028B82B0FFF7A4FD4FF48041B4
:1017A000002001F041FA08B1FFF7F2FC01F096F8D1
:1017B000FA48FB49401AC108032000EB01400446E7
:1017C000F8A101F0B3F9F3EE000A9FEDFD0AFFF76F
:1017D0002FFEB5EEC00AFB4EF1EE10FAFDEEC00A88
:1017E00086ED020AF8EEE00A02DD70EE600A01E022
:1017F00070EEC00A9FEDF48AB5EEC00AF34F60EEBA
:10180000880AFDEEE00AF1EE10FACDED000A05D2ED
:1018100010EE100AB84201D2EDA200E0EDA2BDEE3A
:10182000C00A2046ECA110EE103A01F092F9F048FF
:10183000DFEDF00A9FEDF00AFFF714FEB5EEC00AE7
:1018400086ED050AF1EE10FAFDEEC00AF8EEE00AA8
:1018500002DD70EE600A01E070EEC00AB5EEC00A6B
:1018600060EE880AFDEEE00AF1EE10FACDED000A16
:1018700005D210EE100AB84201D2D5A200E0D5A2DE
:10188000BDEEC00A2046DDA110EE103A01F061F96C
:10189000D6ED050A96ED020AFFF724FEC948B5EE1B
:1018A000C00A1830F1EE10FAFDEEC00A80ED060A0B
:1018B000F8EEE00A02DD70EE600A01E070EEC00AA8
:1018C000B5EEC00A60EE880AFDEEE00AF1EE10FA0D
:1018D000CDED000A05D210EE101AB94201D2BCA219
:1018E00000E0BCA2BDEEC00A8246204610EE103ACF
:1018F000C8A101F02EF900BF00F0FEFF0028FBD1C7
:101900000420FFF7B9F9FFF715FE40F2422001F07D
:101910008FFF02462046C5A101F00CF9FFF7AAF897
:101920004FF07041002001F0DDFFB14D4FF00A088B
:101930002D1F204685F80080C1A101F0F7F8FEF7C1
:1019400053FF68704FF4FA790AE000BFFEF74CFFCE
:10195000687060B12A782046BFA100BF01F0EAF8A4
:101960002878002868780CD00028EFD00AE0287882
:10197000401E2870484600F065FC20462A78BEA12B
:10198000ECE7B8B144F6206000F05CFC2046C1A151
:1019900001F0CCF8FFF76AF800F0AEFF0028FBD1A9
:1019A00085F800802046C2A101F0C0F8FEF744FF90
:1019B00068700EE02046C3A101F0B8F8ECE700BF64
:1019C000FEF73AFF687058B120462A78A2A101F0CC
:1019D000B1F828780028687809D00028F0D007E00E
:1019E0002878401E2870484600F02CFCF1E7E0B350
:1019F00049F6404000F026FC2046B6A101F096F8DA
:101A0000FFF734F8484600F01DFC00BF00F074FFFB
:101A10000028FBD16B484C30FEF736FF694D96ED40
:101A2000020A4C35D5ED010AFEF77EFED5ED040A1B
:101A300096ED050AFEF7ACFE00F05EFF0028FBD134
:101A4000484600F0FFFB5F48FFF7E2F85D481830BA
:101A5000FFF79CF85B483430FFF742F82046A3A11B
:101A600001F064F896ED010A00E00BE0B5EEC00A63
:101A7000F1EE10FAFDEEC00AF8EEE00A07DD70EEB6
:101A8000600A06E020469CA101F050F8BAE770EE2B
:101A9000C00ABDEEC01AB5EEC00A60EE880A8DED30
:101AA000001AFDEEE00AF1EE10FACDED010A05D2C2
:101AB00010EE100AB84201D245A300E045A320462B
:101AC00091A1326801F04EF896ED040AB5EEC00A15
:101AD000F1EE10FAFDEEC00AF8EEE00A02DD70EE5B
:101AE000600A01E070EEC00ABDEEC01AB5EEC00A91
:101AF00060EE880A8DED001AFDEEE00AF1EE10FAB4
:101B0000CDED010A05D210EE100AB84201D230A381
:101B100000E030A3204685A1F26801F023F82046BA
:101B20008BA101F003F89AED010A5546B5EEC00A03
:101B3000F1EE10FAFDEEC00AF8EEE00A02DD70EEFA
:101B4000600A01E070EEC00ABDEEC01AB5EEC00A30
:101B500060EE880A8DED001AFDEEE00AF1EE10FA53
:101B6000CDED010A05D210EE100AB84201D218A339
:101B700000E018A3204679A12A6800F0F3FF95ED54
:101B8000030AB5EEC00AF1EE10FAFDEEC00AF8EE57
:101B9000E00A02DD70EE600AF8E0F5E0384100008E
:101BA000F840000054656D706C6174652065786163
:101BB0006D706C6520737461727465642E00000032
:101BC0006F12833AA80000200000C842000080BFC6
:101BD0002D000000000000007461726765744149C7
:101BE00043433A20257325642E25303264000000DB
:101BF0000400002000007A44002474497461726774
:101C00006574415643433A20257325642E253032AE
:101C100064000000746172676574506F7743433AE3
:101C200020257325642E253032640000564552531A
:101C3000494F4E2050524F445543543A2025780086
:101C40004175746F63616C6962726174696F6E2053
:101C50004149200A00000000636865636B41444508
:101C60005F6F6B202D206E4144455F6163616C3A6C
:101C70002025640A000000004175746F43616C62A6
:101C80005F41493A206E4144455F6163616C2025A4
:101C9000640A00004175746F63616C6962726174FB
:101CA000696F6E2073746F702041490A0000000054
:101CB0004175746F63616C6962726174696F6E20E3
:101CC00041560A00636865636B4144455F66616C19
:101CD00073650A004175746F63616C696272617447
:101CE000696F6E2073746F7020415600524D5352CD
:101CF0006567733A00000000636865636B414445A3
:101D00005F66616C7365000041495265673A202542
:101D10007820616E6420414956616C75653A2025D2
:101D20007325642E25303264000000004156526550
:101D3000673A20257820616E6420415656616C75A3
:101D4000653A20257325642E25303264000000009A
:101D5000506F77526567733A0000000061637469E1
:101D600076655265673A20257820616E642061634C
:101D70007469766556616C75653A20257325642E05
:101D8000253032640000000070EEC00AB5EEC00AD3
:101D900060EE880ABDEEE01AFDEEC00ACDEC020A44
:101DA000F1EE10FA06D210EE100AB84202D2AFF2EB
:101DB000E01301E0AFF2E413204677A1AA6800F037
:101DC000D1FE95ED050AB5EEC00AF1EE10FAFDEE72
:101DD000C00AF8EEE00A02DD70EE600A01E070EE83
:101DE000C00ABDEEC01AB5EEC00A60EE880A8DEDDD
:101DF000001AFDEEE00AF1EE10FACDED010A06D26E
:101E000010EE100AB84202D2AFF23C2300E06DA3FC
:101E100020466DA12A6900F0A5FED5ED010A95EDD9
:101E2000051A80EE810AB5EEC00AF1EE10FAFDEE59
:101E3000C00AF8EEE00A02DD70EE600A01E070EE22
:101E4000C00ABDEEC01AB5EEC00A60EE880A11EEF7
:101E5000103AFDEEE00AF1EE10FA06D210EE100A8A
:101E6000B84202D2AFF2982200E056A2CDED000AAD
:101E7000204661A100F06DFE204665A100F056FEEF
:101E8000654D95ED010AB5EEC00AF1EE10FAFDEED2
:101E9000C00AF8EEE00A02DD70EE600A01E070EEC2
:101EA000C00ABDEEC01AB5EEC00A60EE880A8DED1C
:101EB000001AFDEEE00AF1EE10FACDED010A06D2AD
:101EC00010EE100AB84202D2AFF2FC2300E03DA3AC
:101ED000204652A12A6800F045FE95ED030AB5EEB2
:101EE000C00AF1EE10FAFDEEC00AF8EEE00A02DDDB
:101EF00070EE600A01E070EEC00ABDEEC01AB5EEE9
:101F0000C00A60EE880A8DED001AFDEEE00AF1EEDF
:101F100010FACDED010A06D210EE100AB84202D234
:101F2000AFF2543300E027A3204648A1AA6800F08E
:101F300019FE95ED050AB5EEC00AF1EE10FAFDEEB8
:101F4000C00AF8EEE00A02DD70EE600A01E070EE11
:101F5000C00ABDEEC01AB5EEC00A60EE880A8DED6B
:101F6000001AFDEEE00AF1EE10FACDED010A06D2FC
:101F700010EE100AB84202D2AFF2AC3300E011A367
:101F800020463CA12A6900F0EDFD02B00020BDEC26
:101F9000028BBDE8F0870000726561637469766545
:101FA0005265673A20257820616E6420726561630E
:101FB0007469766556616C75653A20257325642EC3
:101FC00025303264000000006170706172656E74CB
:101FD0005265673A20257820616E642061707061D7
:101FE00072656E7456616C75653A20257325642E92
:101FF0002530326400000000504620636F6D70751C
:1020000074653A20257325642E2530326400000063
:102010005051526567733A00DC00002070774661CA
:1020200063746F725265673A20257820616E642070
:102030007077466163746F7256616C75653A2025DE
:102040007325642E253032640000000070657269CB
:102050006F645265673A20257820616E642066724D
:10206000657156616C75653A20257325642E25309F
:1020700032640000616E676C6541565F414952658C
:10208000673A20257820616E6420616E676C654137
:10209000565F414956616C75653A20257325642E5B
:1020A000253032640A0000002DE9F047C5881E1D66
:1020B000B6FBF5F78946B6FBF5F1044605FB176C50
:1020C000407916686843DDF820A0F718001F8742A2
:1020D00000D9C61A166001E02468491E0029FBD108
:1020E000A5EB0C078846B74216D818E004EB0C00A5
:1020F000001D09EB0803BAF1000F3A4602D0014671
:10210000184600E01946FEF71DF92468F61B4FF04B
:10211000000CB844B54201D9374600E02F46002EE6
:10212000E4D1BDE8F087000030B5024651B100F0BF
:102130008FFD0021074C08E034F821301568AB42D0
:1021400002D11160002030BD491C8142F4D305202A
:1021500030BD000000000000002100F009B801219E
:1021600000F010B808B56A46FEF787F8009808BD79
:1021700008B56A46FEF767F808BD08B56A46FEF777
:1021800049F808BD08B56A46FEF750F8009808BD42
:1021900008B56A46FEF77EF8009808BD70B504469B
:1021A00000252846FEF7FFFF216862680868904214
:1021B0000ED9401E08600178238AE26801FB0325DE
:1021C000227A2168101AC0B20A79824200D20871BC
:1021D0000020FEF7EAFF284670BD70B505460C46A4
:1021E0000020FEF7E0FFE868298A201AB0FBF1F131
:1021F0002A681068431C13600170BDE8704000201D
:10220000FEF7D3BF10B530B1017A42680368891A6E
:10221000C9B21A6006E00E2010BD03681A68541C8B
:102220001C601170491EC9B2F7D20068002101710B
:10223000084610BDC20800F007030120895C9840E1
:10224000084070472DE9F041040007D0044E4FF4D8
:102250007A47751C3846A847641EFAD1BDE8F0815C
:10226000D03E00002DE9F041040007D0044E4FF4A9
:102270007A47751C3846A847641EFAD1BDE8F0813C
:10228000503F00002DE9FF411C460378164D174EC4
:1022900045F823200C3545F82340F0CE8DE8F000BA
:1022A0000C788DF800404C788DF801408C788DF8D2
:1022B0000240CC788DF803400C798DF805404C79BC
:1022C0008DF806408C6802940C7B8DF80C40497B9D
:1022D0008DF80D1002B1064A6946001D00F00EFE91
:1022E00004B0BDE8F08100000C010020E03E0000D9
:1022F000453900001FB5001D069C8DE81E00002218
:10230000694600F0B1FE04B010BD0000F0B505460E
:102310000478154889B0164640F82420124A086906
:10232000121DA2F1080742F82400487F38552022E8
:102330006846FEF707F804942878385C48B10EB177
:102340000A4A00E000226946281D00F0FDFF09B09E
:10235000F0BD0EB1064A00E00022694605F10C000E
:1023600000F0BCFEF3E700000C000020D93C0000A8
:10237000213B00000FB408B50399002904D004AA3A
:1023800000926A4600F00FF801B05DF814FB10B53A
:1023900082680446002A05D0D4E9040321689847DE
:1023A0000020A06010BD2DE9FC4791460C0080463E
:1023B00076D014F8011B39B125290ED04046FFF71D
:1023C00013F820780028F4D198F80C00002867D082
:1023D0004046BDE8FC47FFF7DABF00200122217824
:1023E0002B291BD02D2902D0302908D102E040F042
:1023F000010001E040F00200641C002AEFD100253A
:102400002A290ED02178A1F130020A2A11D205EB37
:10241000850201EB4205641C303DF1E740F0040009
:10242000EAE7D9F800100B1DC9F800300968641CF0
:102430000D44217800232E290BD114F8011FA1F19E
:1024400030020A2A05D203EB830201EB4203303B40
:10245000F3E76C290DD068290BD0692921D00BDC5A
:10246000252918D0582931D063290ED0642915D1D7
:1024700017E014F8011FECE7702969D0732932D0F6
:1024800075291BD0782909D120E0D9F80000011D59
:10249000C9F8001001784046FEF7A6FF641C90E7DB
:1024A0006CE0D9F800100A1DC9F800200968CDE9D0
:1024B00000500A224046FFF765F8EFE7D9F8001010
:1024C0000A1DC9F8002009680A2206E0D9F80010A0
:1024D0000A1DC9F8002009681022CDE900504046C5
:1024E00001F09CFCDAE7D9F8001000270A1DC9F8B2
:1024F00000200E68C00705D112E04046761C7F1C04
:10250000FEF772FF31780029F7D104E02021404620
:102510006D1EFEF769FFBD42C0D9002DF6D1BDE7A3
:102520004EB13046FDF732FF074604E02021404619
:102530006D1EFEF759FFBD4206D9002DF6D103E00E
:102540004046761CFEF750FF31780029F8D1A5E708
:10255000D9F80000011DC9F8001005683021404677
:10256000FEF742FF78214046FEF73EFF082000219B
:10257000CDE90001034610222946B0E7BDE8FC87FB
:1025800070B541EA4201DDE904564FF0A04441EA4A
:10259000830141EA052104EB800041EA0641C0F8CD
:1025A000001770BD70B541EA4201DDE904564FF0F5
:1025B000A04441EA830141EA052104EB800041EA9D
:1025C0000641C0F8001770BD70B541EA4201DDE96F
:1025D00004564FF0A04441EA830141EA052104EB8F
:1025E000800041EA0641C0F8001770BD70B541EAAD
:1025F0004201DDE904564FF0A04441EA830141EA7B
:10260000052104EB800041EA0641C0F8001770BDC7
:102610001CB5002100910B4601220191FFF7D4FF68
:102620001CBD1CB5002100910B4601220191FFF752
:10263000DDFF1CBD1CB500220B4600921146019225
:10264000FFF7C2FF1CBD1CB500220B4600921146CD
:102650000192FFF7CBFF1CBD1CB5002100910B467A
:10266000012201911146FFF79DFF1CBD1CB5002101
:1026700000910B46012201911146FFF7A5FF1CBDF9
:102680001CB5002100910B46012201911146FFF774
:10269000ADFF1CBD4FF0A04202EB8000D0F8002738
:1026A00022F44032C0F80027D0F8002742EA014166
:1026B000C0F800177047000038B5094B44181B6874
:1026C00000936B4608E000BF53F82010D1F8205566
:1026D00020C2C1F82055401C8442F5D838BD000006
:1026E000F03E00004FF0A04201218140C2F80C15DD
:1026F00070474FF0A04201218140C2F80815704791
:1027000001224FF0A043824011B1C3F80825704761
:10271000C3F80C2570470000034908B508440021A0
:1027200001600068009008BD006000400249405808
:10273000012800D0002070470060004030B5154AE5
:1027400001460020D2F8104423460AE0DB681D79D8
:10275000854205D1401C0A28F6DB4FF0FF3030BD22
:102760001B68002BF2D1431CF9D0CB681871D2F84A
:10277000103443B1DB68CC681B682360D2F81024A6
:10278000D268116030BDC2F81014C96800220A6016
:1027900030BD00008C030020F0B595B01C461546F6
:1027A0000F4608461A9E00F023FB182109A8FDF7E2
:1027B000E2FD0E96CDE909540023082203A938460C
:1027C00000F02BFB05980690BDF81000ADF81C003A
:1027D000BDF81200ADF81E0000208DF8210003980E
:1027E000082600F00300012802D0022818D032E0A9
:1027F00003983346850AC0F3C2008DF82000039881
:102800000FA9C0F38314A200384600F006FB09A804
:10281000009006AB22460FA9284600F045FA1AE0C0
:102820000398840DC0F3C2008DF82000082C01D25B
:10283000254600E0082533462A460FA9384600F011
:10284000ECFA2E44641B09AB06AA29460FA800F037
:1028500093F9002CEAD1384600F0D0FA15B0F0BD5B
:102860007047012001F07AB9084810B50178084A8C
:10287000515C19B1001D00F001FE02E00C3000F0C7
:10288000FBFCBDE81040002001F068B930000020DA
:102890000800002008B5034A00924023024AFFF7CF
:1028A0007BFF08BD95370000F40100200A4A01298A
:1028B00002EBC00007D0022907D0032907D0042962
:1028C00007D000207047022070470420704700792D
:1028D0007047407970470000F840000010B5FFF7DE
:1028E000C0FF04210348FFF729FF02490120C968FE
:1028F000487110BDE84000002DE9F0478CB0FEF7AC
:102900008BFD18B100200CB0BDE8F0877D4C002095
:10291000C4F81804BFF34F8F7B49A06802900D687C
:102920004FF00008284004EB80000BE0D4F81804B6
:1029300070B961680298814201D8A160E2E728403D
:1029400004EB80000C3002A9FEF7B4FE0028EDD1A4
:10295000002003AA029901EA050304EB8303491C42
:10296000DB6842F82030401C02910228F2D3039821
:1029700000F00300022802D001284DD0A7E0039800
:102980005022810D8946B2EB905F00D850210E464F
:1029900066F39F50039008315C4800F0E0F90700AF
:1029A00078D000F025FA4346082203A9384600F003
:1029B0003CFA029908F1080A2940681A8000001DB3
:1029C000864222D94F4D0C3530B1C2B204EB8101A1
:1029D000301A90460C3104E02946F2B200259046A8
:1029E0002846C6B25346384600F01FFA0AEB0803E1
:1029F00025B132462946384600F017FA029909F106
:102A0000030001EB900002903BE004EB8101534690
:102A1000324638460C31EFE70398C0F3831006289E
:102A200000D30620039960F38911C1F38310801C41
:102A300003918100354800F092F9070047D000F07B
:102A4000D7F94346082203A9384600F0EEF908F109
:102A5000080800260FE00298434600EA0501401CE2
:102A600004EB81010290042238460C3100F0DDF9BC
:102A700008F10408761C0398C0F38310B042EAD82A
:102A800047B1D4F81054D4F8180478B1384600F09F
:102A9000B5F931E01BE0E8684079012804D12A68E3
:102AA0002846394612689047E8680568002DF2D13B
:102AB000384600F0A3F90020FEF775FBD4F818049F
:102AC00008B90298A0600020FEF76FFB14E0D4F86C
:102AD000104405E02168204689688847E06804685A
:102AE000002CF7D10A480B49401AC008022101EB1B
:102AF000004009A100F01AF8FEF78EFC80F00100FA
:102B000001E700008C0300204C0000204041000041
:102B100038410000F84000004261636B656E6473E9
:102B200020666C75736865640000000000231A4617
:102B300000F082BF08B5012300926A4600F07CFFD6
:102B400008BD1CB5CDE9002302236A4600F074FFDE
:102B50001CBD3EB5069C8DE81C0003236A4600F0B0
:102B60006BFF3EBD7FB5DDE908458DE83C000423E1
:102B70006A4600F061FF7FBD2DE9F0470E468046B2
:102B80001C469246082940D894F80C9000202073E7
:102B90001946104600F076FD0025B54206D218F819
:102BA00005201BA12046FFF7E5FB03E01AA1204604
:102BB000FFF7E0FB6D1C082DEFD318A12046FFF7AF
:102BC000D9FB0025B54212D218F805707E2F08D81F
:102BD000FDF7B4FB0068C05D10F03E0F01D03A462F
:102BE00000E02E220EA12046FFF7C4FB03E00DA15A
:102BF0002046FFF7BFFB6D1C082DE3D301222146C1
:102C0000504600F021FD84F80C90BDE8F0870000EC
:102C10002025303278000000202020007C000000B9
:102C20002563000020000000064910B50020087050
:102C3000054800F0E1F8002803D1044800F0FDF851
:102C4000002010BD8C030020404100003C3F0000EC
:102C500002480349401AC008704700004041000084
:102C6000F840000013B56846FFF75EFA08B100208F
:102C70001CBD0248009950F831001CBDF84000000E
:102C800070B508480125D0F81044057007E0E068E9
:102C900045712168204649688847E0680468002C2F
:102CA000F5D170BD8C0300202DE9FF4781460C9DB6
:102CB00000200C462F7B2873984616462946184656
:102CC00000F0E0FC072E42D2DFE806F004090F1600
:102CD0001F2A360049462846FFF74CFB37E0494695
:102CE00028462268FFF746FB31E0D4E90023494635
:102CF0002846FFF73FFB2AE0A0680090D4E90023B4
:102D000049462846FFF736FB21E0D4E90201CDE928
:102D10000001D4E9002349462846FFF72BFB16E0C3
:102D200004F1080007C88DE80700D4E900234946EC
:102D30002846FFF71FFB0AE004F108000FC88DE8E2
:102D40000F00D4E9002349462846FFF713FB002271
:102D50002946404600F078FC2F73BDE8FF872DE937
:102D6000F041058A80462D1F4819C01CB0FBF5F0C4
:102D7000C6B24046FFF712FA041E19D00020207197
:102D800001206071E58000272546761EC4F800808A
:102D90000BE04046FFF702FA60B16179491C6171AE
:102DA000286005467F1CC0F80080B742F1D320465A
:102DB000BDE8F081204600F002F80020F8E72DE998
:102DC000F041457901466B1E002201E00968521C62
:102DD0009A42FBD30F680146002605E038460C688E
:102DE000FFF7FBF92146761CAE42F7D3BDE8F08130
:102DF0000121001DFFF7B6B9FFF704BA10B504466C
:102E00000121001DFFF7C4F910F0FF0F04D1204687
:102E1000BDE81040FFF7D3BF10BD1CB501920122E1
:102E2000009201AAFFF740F91CBD1CB501920022D7
:102E3000009201AAFFF738F91CBD82680021916059
:102E400082681161826851618268D16082685160D4
:102E50008068016070474058002800D0012070470A
:102E60004058002800D00120704708B50022425089
:102E70004058009008BDD0F80403084000D001205D
:102E800070474058002800D00120704708B5002244
:102E900042504058009008BD0121B1EB507F01D154
:102EA00001207047002070470121B1EB507F01D114
:102EB000012070470020704770B50D4600F02EFCD1
:102EC00004000FD00020FEF76EF9207920B1002019
:102ED000FEF76BF9112070BD0120256020710020E4
:102EE000FEF763F9002070BD10B500F017FC002854
:102EF00002D000210160017110BD00002DE9FC47E6
:102F00000C46154601798046554A01EBC10002EB9B
:102F100080069946307F10B10820BDE8FC87514AF1
:102F2000D8F80000074652F82110FFF7C5FF08B196
:102F30001120F2E7C6E90059207B0128207802D849
:102F4000FFF7D0FB01E0FFF7D4FB4FF0000ACDF80C
:102F500000A0CDF804A02078534652460121FFF787
:102F600021FB60784FF0FF35FF2806D08146FFF740
:102F7000B9FB4846FFF770FB00E0A946A078FF28A0
:102F800009D0002205460123CDF800A01146CDF856
:102F900004A0FFF707FBA07886F82000E078F07720
:102FA000E078FF280BD0217911B1FFF79BFB01E0FE
:102FB000FFF79FFBE078FFF74FFB2079B077217890
:102FC000C7F80815C7F80C95C7F81055A068C7F8DA
:102FD0002405217B607B00B10120012904D0022956
:102FE00005D0032908D105E040F0020004E040F0DC
:102FF000040001E040F00600C7F85405A079C7F8C6
:10300000C0050720C7F800053068012218B3D8F8BA
:103010000000617940F3073000284FEA411104DBDA
:1030200000F1E02080F8001405E000F00F0000F14E
:10303000E02080F8141DD8F8000040F30730002885
:1030400009DB00F01F0102FA01F14009800000F1E4
:10305000E020C0F80011504686F81DA032775CE7EA
:1030600080010020F43E00002DE9F04105460F46A6
:103070000079154900EBC00001EB80041646607F23
:1030800010B11120BDE8F081206820B116F0140FB6
:1030900001D10120607797E80F0004F10C0888E85F
:1030A0000F00E07FFF2806D0A17F11B1FFF721FBC1
:1030B00001E0FFF717FB33463A4621462868BDE892
:1030C000F04100F05BBC0000800100200149024893
:1030D00000F06CBDA4010020002000402DE9F0416B
:1030E0000546007916460F4600EB40012D4A01EBDC
:1030F000C00102EB810494F82A1011B10820BDE848
:10310000F081294951F820102868FFF7D5FE08B151
:103110001120F4E739462846FEF75CF86660386906
:10312000206030004FF001062FD03F7F4FF48E71AA
:103130002868FFF79AFE4FF4A2712868FFF795FE02
:1031400028681A49C0F8041328684FEA471140F369
:103150000730002804DB00F1E02080F8001405E0CF
:1031600000F00F0000F1E02080F8141D286840F303
:103170000730002809DB00F01F0106FA01F14009C1
:10318000800000F1E020C0F8001128680421C0F898
:1031900000150020A061E06184F8290044F8140FB4
:1031A000A675ACE7A4010020F83E000080000200F4
:1031B0002DE9F05F054600790B4600EB400101EB7D
:1031C000C000244901EB8004284600F045F810B106
:1031D0001120BDE8F09F62614FF00009C4F8209013
:1031E000A36084F828904FF48E784E4641462868B4
:1031F000FFF73BFE28684FF0010AC0F808A02146FF
:10320000286800F063FC606808BBD5F800B0676907
:103210000FE000BF94F8280008B10F2615E04146E2
:103220005846FFF71DFE0028F4D02146584600F00E
:103230004DFC206AB842F2D3574641462868FFF752
:103240000FFE0028F9D02868C760C4F814903046F3
:10325000BFE70000A4010020007900EB400101EB72
:10326000C000044901EB80004069002800D0012023
:1032700070470000A40100202DE9F04704460079C2
:103280004FF0000900EB400101EBC000284901EBC1
:1032900080072068C0F800957868B0B1206825499B
:1032A000C0F80813206840F3073000280DDB00F059
:1032B0001F02012191404009800000F1E020C0F888
:1032C0008011BFF34F8FBFF36F8F2068D0F80C25AC
:1032D000D0F81485D0F80865D0F810554FF0FF31BC
:1032E000C0F81415C0F80C152068C0F80815C0F80F
:1032F0001015501C02D01046FFF78AF9B8F1FF3FB5
:1033000002D04046FFF784F9681C02D02846FFF738
:103310007FF9701C02D03046FFF77AF92068FFF77A
:10332000E3FD87F82A90C7F80490BDE8F087000015
:10333000A4010020840202000149024800F0E4BC1C
:10334000D0010020002000402DE9F041054616463E
:1033500000790F46154A00EBC00102EB810494F896
:10336000201011B10820BDE8F081114951F820105A
:103370002868FFF7A1FD08B11120F4E73946284677
:10338000FDF76CFF6660386920601EB1397F284602
:10339000FEF74CF928680821C0F800150020A0614C
:1033A000E0616061012184F82010DCE7D001002099
:1033B000FC3E00002DE9F04704460E4600792749FF
:1033C00000EBC00001EB800517463046FFF76CFDAF
:1033D00030B1204600F044F820B11120BDE8F0875C
:1033E0001020FBE76F61AE604FF490774FF000085C
:1033F00039462068FFF74AFD4FF4AC763146206825
:10340000FFF744FD2068AA686969C0F84425C0F840
:10341000481520684FF00109C0F808906868D0B9D5
:10342000BA4651462068FFF72CFD07463146206812
:10343000FFF727FD0743F4D010B14FF00F0808E065
:103440002068C0F80C9031462068FFF71AFD00286C
:10345000F9D0002068614046C0E70000D00100209C
:103460000079054900EBC00001EB800040690028AD
:1034700000D0012070470000D00100202DE9F04766
:10348000064600793D4900EBC00001EB8005346839
:1034900068680127A8B13A49C4F80813306840F3B6
:1034A000073000280DDB00F01F0107FA01F1400989
:1034B000800000F1E020C0F88011BFF34F8FBFF310
:1034C0006F8FD4F8000220F02000C4F80002A86931
:1034D0004FF4A27820B141462046FFF7D7FC676041
:1034E0004FF4AC7949462046FFF7D0FCE7604746E9
:1034F00049462046FFF7C5FC0028F9D0A86928B145
:1035000039462046FFF7BDFC0028F1D04FF0000AF5
:10351000C4F800A53068D0F80C25D0F81495D0F880
:103520000885D0F810754FF0FF31C0F80C15C0F8C1
:1035300014153068C0F80815C0F81015501C02D0DA
:103540001046FFF76EF8B9F1FF3F02D04846FFF78B
:1035500068F8781C02D03846FFF763F8B8F1FF3FEF
:1035600002D04046FFF75DF82046FFF7BDFC85F826
:1035700020A0C5F804A0BDE8F0870000D00100201D
:10358000100342002DE9F05F2A4F06464FF0A04A93
:103590004FF0010B0024381990F95010491C3CD011
:1035A00090F85000314620F0C0052846FEF742FE54
:1035B00020B3204600F040F881460AEB8500D0F8A1
:1035C0000007C0F30148B8F1020F18D002212846C5
:1035D000FFF760F80BFA05F1CAF820152846FDF749
:1035E00097FF57F820204AB14846B9F1030F11D090
:1035F000B8F1020F05D0B8F1030F07D00DE0032199
:10360000E5E74846B9F1010F04D006E04846B9F1B4
:10361000020F02D1014628469047641C042CBAD3FD
:10362000324601210020FFF747F830680028B1D169
:10363000BDE8F09F240100200249084490F85000A2
:10364000800970472401002010B50C46017A052935
:1036500008D0407A38B1084808A102682046FEF731
:1036600089FE00E01AB106A12046FEF783FE20463F
:10367000BDE81040FEF78BBE7C00002025730000E3
:103680000D0A000038B5C3880D46044633B114A0B6
:10369000009015A216A12846FEF76CFE217A052996
:1036A0001CD0607A48B1A088FFF700F9164951F89C
:1036B000202016A12846FEF75DFEA0880021FFF716
:1036C000D1FA03461049207A143951F8202001B06C
:1036D0002846BDE830400EA1FEF74CBE38BD0000C4
:1036E0001B5B306D000000001B5B313B33316D0014
:1036F00025734C6F67732064726F70706564202847
:1037000025642925730D0A007C0000202573000024
:103710003C25733E2025733A20000000034988426F
:1037200001D103487047002070470000002000408E
:103730001400002070B5054688690C4600284FF437
:10374000847128460AD0FFF790FBD5F81805626A05
:10375000E1688854606A401C606270BDFFF785FBB9
:10376000D5F8180570BD1FB501238DF80030CDE9DF
:103770000121D0E90012684690471FBD1FB5012303
:103780008DF80030CDE90121D0E90012684690475C
:103790001FBD000070B50D4C0020D2B22070201D5E
:1037A0000B4D0378EB5C1BB1001DFFF703FE02E03D
:1037B0000C30FFF7FDFC08B1FDF7EAFC607800284B
:1037C00002D021780029FAD070BD00002C00002022
:1037D000080000200149012048707047A000002027
:1037E0003EB5082141EA0010010A8DF804108DF859
:1037F000050000200C4C8DF806008DF8070004220F
:10380000607002AB01A909480092FEF773FD18B180
:10381000FDF7BEFC00E020BF60780028FBD0BDF8BB
:103820000A0040BA3EBD0000A0000020583F000042
:1038300010B5082186B041EA0010010A8DF8041085
:103840008DF805000220002101AA1154401CC0B2CD
:103850000628FAD30D4C0622617003AB01A90C486F
:103860000092FEF747FD18B1FDF792FC00E020BF83
:1038700060780028FBD0DDF80E009DF8111000BA2A
:1038800020F0FF0006B0084310BD0000A00000209B
:10389000583F00003EB54FF6FF7202EA0010020AE0
:1038A0008DF804208DF80500080A8DF80600002028
:1038B0000A4C8DF8071002900422607002AB01A937
:1038C00007480092FEF716FD18B1FDF761FC00E015
:1038D00020BF60780028FBD03EBD0000A000002083
:1038E000583F000010B54FF6FF7286B002EA001094
:1038F000020A8DF804208DF80500080E8DF80600E8
:10390000080C8DF80700080A8DF8080000200B4C01
:103910008DF80910039004900622607003AB01A992
:1039200007480092FEF7E6FC18B1FDF731FC00E015
:1039300020BF60780028FBD006B010BDA00000209A
:10394000583F000000B585B00A4601788DF8001098
:1039500041680191017A8DF80810C1680391007CDB
:103960008DF81000044850F822100C3850F822202E
:103970006846904705B000BD180100202DE9F843C6
:10398000044610681E4615460F464FF0000810B159
:10399000FFF782FAF8B1A86810B1FFF77DFAD0B14D
:1039A000D5E90001C4F84405C4F84815D5E9020179
:1039B000C4F83405C4F838154FF48C754046C4F883
:1039C0001881D4F818110091F2074FF0010107D0C7
:1039D000C4F8501506E087F81D801020BDE8F88374
:1039E000C4F85005B20702D5C4F8401501E0C4F888
:1039F0004005300700D42161386848B146F38000A3
:103A0000401C4FF0400014D0C4F804030020E5E748
:103A100029462046FFF71FFA0028F9D0F87FFF2833
:103A2000F4D0B97F11B1FEF75DFEEFE7FEF761FE5E
:103A3000ECE7C4F80803E9E72DE9F84F0746214809
:103A40009146884605681E46012269461846FDF7DC
:103A500085FCDFF874A060B3009800210446801C48
:103A60000AE000BF00EA050259F821C00AEB820211
:103A7000401C491CC2F80CC0B142F3D34FEA1749AD
:103A8000FDF74EFD611C29400AEB810149EA004225
:103A90002C40CA600AEB8401C86867F3C50066F36E
:103AA000891068F39F2020F00300401C20F00400E0
:103AB000C8609AF8000001E0FEF71EFF0028FBD165
:103AC000BDE8F88F4C0000208C03002070B50C4638
:103AD00005464FF48E71FFF7C8F9216AA068415C72
:103AE000206A401C2062C5F81C1570BD1FB500225D
:103AF0008DF800200291816801914261D0E90012A5
:103B0000684690471FBD1FB500228DF80020029126
:103B1000816801914261D0E90012684690471FBD5B
:103B20001FB50A4601788DF8001041680191017AAD
:103B30008DF80810C0680390044850F82210001F48
:103B400050F82220684690471FBD0000100000205A
:103B500001490120087070472C00002010B588B082
:103B6000044620220E496846FCF7ECFB0620009034
:103B7000C01F0190029003904FF0EB7006900CB1C3
:103B8000084A00E0002269460748FEF7BFFB08B17B
:103B9000FDF7FEFA0448001F447008B010BD000095
:103BA0001C3F0000513B0000300000202DE9FF4782
:103BB0000C4605464FF40071FFF75DF901274FF4FD
:103BC0000178002618B34FF4927949462846FFF74A
:103BD00047F9E0B149462846FFF747F9C5F8088399
:103BE00094F8290000B96F6002208DF80000D5F824
:103BF0008004C5F880040390A0690290E0680190F9
:103C0000A661E661D4E900126846904728E00421E5
:103C10002846FFF730F918B34FF484712846FFF7B0
:103C20001FF9E8B121462846FFF784FD616AA069C3
:103C3000884215D1E06938B1E268616AA061206903
:103C4000E6616662E06008E094F8290000B96F6000
:103C5000C5F80883A661E268616A2046FFF783FD24
:103C60004FF48E7841462846FFF7FAF880B1606934
:103C7000216A814202D294F8280028B3414628469E
:103C8000FFF7F3F8606918B161692046FFF72EFF6E
:103C90004FF4A27841462846FFF7E2F8002818D0F2
:103CA00041462846FFF7E1F894F8290000B12F605B
:103CB000A06900280DD0A661E268616A04B02046C0
:103CC000BDE8F047FFF74FBD21462846FFF7FEFE4F
:103CD000DEE7BDE8FF8700001FB50A4601788DF8D2
:103CE000001041680191017A8DF80810C0680390B6
:103CF000044850F82210001F50F8222068469047D0
:103D00001FBD0000100000202DE9FF410C464FF4BC
:103D1000927705463946FFF7B4F80026B8B1394620
:103D20002846FFF7B3F802208DF80000D5F880048C
:103D3000C5F880040390D5F83C050290E068019036
:103D4000A661E661D4E900126846904723E04FF48B
:103D5000887739462846FFF794F8E0B13946284677
:103D6000FFF794F8D5F83C15A069884213D1E069B3
:103D700060B1E268D5F8000220F02000C5F800022A
:103D8000E069A0612069E661E06001E0A661E268A7
:103D90002046FFF7F3FC4FF4A27739462846FFF799
:103DA00070F868B139462846FFF770F8A06938B155
:103DB000A661E661D5F83C152046E268FFF7DEFC17
:103DC0004FF4907631462846FFF75BF860B13146F4
:103DD0002846FFF75BF80120E860606920B1D5F85C
:103DE0004C152046FFF78FFE4FF4AC76314628463F
:103DF000FFF747F800280ED031462846FFF746F86F
:103E00006069002807D0D5F84C1504B02046BDE8FD
:103E1000F041FFF778BEBDE8FF8100002DE9F05FBB
:103E20008346DDE90A4A994690460D460846012731
:103E300003E000BFB0FBF8F07F1C4045FAD2B94563
:103E400000D94F465FEACA7012D18CB15FEA8A701E
:103E500002D5B9F1000F01D0202607E0302605E099
:103E600031465846641EFDF7BFFA0CB1A742F7D39E
:103E70005FF00106B9F1010F02D9A9F1010903E0D0
:103E8000B5FBF6F0404502D306FB08F6F2E7DFF893
:103E90003C9000BFB5FBF6F000FB165519F800107A
:103EA0005846FDF7A1FAB6FBF8F6002EF2D15FEA0C
:103EB000CA7009D0002C07D0A74205D2202158464D
:103EC000641EFDF791FAF5E7BDE8F09F003F0000A2
:103ED0000338FDD87047111213140D0E0F10000097
:103EE000FFFFFFFF0006FF00000000400000000091
:103EF00000000050650D0000CD3000003933000097
:103F0000303132333435363738394142434445460F
:103F1000952800006928000061280000FFFFFFFFCE
:103F2000FFFFFFFFFFFFFFFFFFFFFFFF000000009D
:103F3000000000000000D60106010000F40200208D
:103F40007F0000007403002000000000000000005B
:103F50000338FDD87047000000000000003000402A
:103F60000000000001000000FFFFFFFF06FF00004F
:103F70000000004000000000004040404040404041
:103F8000404041414141414040404040404040402C
:103F900040404040404040404005020202020202D0
:103FA000020202020202020202202020202020201F
:103FB0002020200202020202020290909090909033
:103FC00010101010101010101010101010101010F1
:103FD0001010101002020202020288888888888865
:103FE0000808080808080808080808080808080851
:103FF000080808080202020240000000793F0000A1
:104000007761726E696E67006465627567000000B3
:104010001B5B313B33306D001B5B306D00000000DB
:104020001B5B313B33316D001B5B313B33326D0029
:104030001B5B313B33336D001B5B313B33346D0015
:104040001B5B313B33356D001B5B313B33366D0001
:104050001B5B313B33376D00696E666F00000000FB
:104060006572726F720000004750494F544500005E
:10407000505253005350494D0000000055415254D6
:104080000000000055415254450000006170705F0F
:10409000627574746F6E00006170705F74696D6535
:1040A00072000000736F72746C697374000000001A
:1040B000756172745F6C6F675F6261636B656E647C
:1040C00000000000617070005441000000000020FA
:1040D000A8000000EC100000FC410000A800002037
:1040E00008270000FC100000103F00000000000046
:1040F000B0400000440000206840000000000000C4
:10410000704000000000000074400000000000004B
:104110007C4000000000000084400000000000001F
:104120008C400000000000009840000000000000EB
:10413000A440000000000000C44000000000030391
:1041400058000020500000205800002034020020B9
:104150001800000000000000000000000000000047
:10416000000000000000000000000000000000004F
:10417000000000000000000000000000000000003F
:1041800000000000000000000020004000000000CF
:10419000002000400000000000000000FF000000C0
:1041A000FF00000000000000000000000000000010
:1041B00000000000000000000000000000000000FF
:1041C000604000000040000058400000084000002F
:1041D000184000001040000020400000284000006F
:1041E00030400000384000004040000048400000DF
:0C41F00050400000000000000090D003D0
:0400000500000201F4
:00000001FF
